{
    "_format": "hh-sol-artifact-1",
    "contractName": "PolygonZkEVM",
    "sourceName": "contracts/PolygonZkEVM.sol",
    "abi": [
        {
            "inputs": [
                {
                    "internalType": "contract IPolygonZkEVMGlobalExitRoot",
                    "name": "_globalExitRootManager",
                    "type": "address"
                },
                {
                    "internalType": "contract IERC20Upgradeable",
                    "name": "_matic",
                    "type": "address"
                },
                {
                    "internalType": "contract IVerifierRollup",
                    "name": "_rollupVerifier",
                    "type": "address"
                },
                {
                    "internalType": "contract IPolygonZkEVMBridge",
                    "name": "_bridgeAddress",
                    "type": "address"
                },
                {
                    "internalType": "uint64",
                    "name": "_chainID",
                    "type": "uint64"
                },
                {
                    "internalType": "uint64",
                    "name": "_forkID",
                    "type": "uint64"
                }
            ],
            "stateMutability": "nonpayable",
            "type": "constructor"
        },
        {
            "inputs": [],
            "name": "BatchAlreadyVerified",
            "type": "error"
        },
        {
            "inputs": [],
            "name": "BatchNotSequencedOrNotSequenceEnd",
            "type": "error"
        },
        {
            "inputs": [],
            "name": "ExceedMaxVerifyBatches",
            "type": "error"
        },
        {
            "inputs": [],
            "name": "FinalNumBatchBelowLastVerifiedBatch",
            "type": "error"
        },
        {
            "inputs": [],
            "name": "FinalNumBatchDoesNotMatchPendingState",
            "type": "error"
        },
        {
            "inputs": [],
            "name": "FinalPendingStateNumInvalid",
            "type": "error"
        },
        {
            "inputs": [],
            "name": "ForceBatchNotAllowed",
            "type": "error"
        },
        {
            "inputs": [],
            "name": "ForceBatchTimeoutNotExpired",
            "type": "error"
        },
        {
            "inputs": [],
            "name": "ForceBatchesAlreadyActive",
            "type": "error"
        },
        {
            "inputs": [],
            "name": "ForceBatchesOverflow",
            "type": "error"
        },
        {
            "inputs": [],
            "name": "ForcedDataDoesNotMatch",
            "type": "error"
        },
        {
            "inputs": [],
            "name": "GlobalExitRootNotExist",
            "type": "error"
        },
        {
            "inputs": [],
            "name": "HaltTimeoutNotExpired",
            "type": "error"
        },
        {
            "inputs": [],
            "name": "InitNumBatchAboveLastVerifiedBatch",
            "type": "error"
        },
        {
            "inputs": [],
            "name": "InitNumBatchDoesNotMatchPendingState",
            "type": "error"
        },
        {
            "inputs": [],
            "name": "InvalidProof",
            "type": "error"
        },
        {
            "inputs": [],
            "name": "InvalidRangeBatchTimeTarget",
            "type": "error"
        },
        {
            "inputs": [],
            "name": "InvalidRangeForceBatchTimeout",
            "type": "error"
        },
        {
            "inputs": [],
            "name": "InvalidRangeMultiplierBatchFee",
            "type": "error"
        },
        {
            "inputs": [],
            "name": "NewAccInputHashDoesNotExist",
            "type": "error"
        },
        {
            "inputs": [],
            "name": "NewPendingStateTimeoutMustBeLower",
            "type": "error"
        },
        {
            "inputs": [],
            "name": "NewStateRootNotInsidePrime",
            "type": "error"
        },
        {
            "inputs": [],
            "name": "NewTrustedAggregatorTimeoutMustBeLower",
            "type": "error"
        },
        {
            "inputs": [],
            "name": "NotEnoughMaticAmount",
            "type": "error"
        },
        {
            "inputs": [],
            "name": "OldAccInputHashDoesNotExist",
            "type": "error"
        },
        {
            "inputs": [],
            "name": "OldStateRootDoesNotExist",
            "type": "error"
        },
        {
            "inputs": [],
            "name": "OnlyAdmin",
            "type": "error"
        },
        {
            "inputs": [],
            "name": "OnlyEmergencyState",
            "type": "error"
        },
        {
            "inputs": [],
            "name": "OnlyNotEmergencyState",
            "type": "error"
        },
        {
            "inputs": [],
            "name": "OnlyPendingAdmin",
            "type": "error"
        },
        {
            "inputs": [],
            "name": "OnlyTrustedAggregator",
            "type": "error"
        },
        {
            "inputs": [],
            "name": "OnlyTrustedSequencer",
            "type": "error"
        },
        {
            "inputs": [],
            "name": "PendingStateDoesNotExist",
            "type": "error"
        },
        {
            "inputs": [],
            "name": "PendingStateInvalid",
            "type": "error"
        },
        {
            "inputs": [],
            "name": "PendingStateNotConsolidable",
            "type": "error"
        },
        {
            "inputs": [],
            "name": "PendingStateTimeoutExceedHaltAggregationTimeout",
            "type": "error"
        },
        {
            "inputs": [],
            "name": "SequenceZeroBatches",
            "type": "error"
        },
        {
            "inputs": [],
            "name": "SequencedTimestampBelowForcedTimestamp",
            "type": "error"
        },
        {
            "inputs": [],
            "name": "SequencedTimestampInvalid",
            "type": "error"
        },
        {
            "inputs": [],
            "name": "StoredRootMustBeDifferentThanNewRoot",
            "type": "error"
        },
        {
            "inputs": [],
            "name": "TransactionsLengthAboveMax",
            "type": "error"
        },
        {
            "inputs": [],
            "name": "TrustedAggregatorTimeoutExceedHaltAggregationTimeout",
            "type": "error"
        },
        {
            "inputs": [],
            "name": "TrustedAggregatorTimeoutNotExpired",
            "type": "error"
        },
        {
            "anonymous": false,
            "inputs": [
                {
                    "indexed": false,
                    "internalType": "address",
                    "name": "newAdmin",
                    "type": "address"
                }
            ],
            "name": "AcceptAdminRole",
            "type": "event"
        },
        {
            "anonymous": false,
            "inputs": [],
            "name": "ActivateForceBatches",
            "type": "event"
        },
        {
            "anonymous": false,
            "inputs": [
                {
                    "indexed": true,
                    "internalType": "uint64",
                    "name": "numBatch",
                    "type": "uint64"
                },
                {
                    "indexed": false,
                    "internalType": "bytes32",
                    "name": "stateRoot",
                    "type": "bytes32"
                },
                {
                    "indexed": true,
                    "internalType": "uint64",
                    "name": "pendingStateNum",
                    "type": "uint64"
                }
            ],
            "name": "ConsolidatePendingState",
            "type": "event"
        },
        {
            "anonymous": false,
            "inputs": [],
            "name": "EmergencyStateActivated",
            "type": "event"
        },
        {
            "anonymous": false,
            "inputs": [],
            "name": "EmergencyStateDeactivated",
            "type": "event"
        },
        {
            "anonymous": false,
            "inputs": [
                {
                    "indexed": true,
                    "internalType": "uint64",
                    "name": "forceBatchNum",
                    "type": "uint64"
                },
                {
                    "indexed": false,
                    "internalType": "bytes32",
                    "name": "lastGlobalExitRoot",
                    "type": "bytes32"
                },
                {
                    "indexed": false,
                    "internalType": "address",
                    "name": "sequencer",
                    "type": "address"
                },
                {
                    "indexed": false,
                    "internalType": "bytes",
                    "name": "transactions",
                    "type": "bytes"
                }
            ],
            "name": "ForceBatch",
            "type": "event"
        },
        {
            "anonymous": false,
            "inputs": [
                {
                    "indexed": false,
                    "internalType": "uint8",
                    "name": "version",
                    "type": "uint8"
                }
            ],
            "name": "Initialized",
            "type": "event"
        },
        {
            "anonymous": false,
            "inputs": [
                {
                    "indexed": true,
                    "internalType": "uint64",
                    "name": "numBatch",
                    "type": "uint64"
                },
                {
                    "indexed": false,
                    "internalType": "bytes32",
                    "name": "stateRoot",
                    "type": "bytes32"
                },
                {
                    "indexed": true,
                    "internalType": "address",
                    "name": "aggregator",
                    "type": "address"
                }
            ],
            "name": "OverridePendingState",
            "type": "event"
        },
        {
            "anonymous": false,
            "inputs": [
                {
                    "indexed": true,
                    "internalType": "address",
                    "name": "previousOwner",
                    "type": "address"
                },
                {
                    "indexed": true,
                    "internalType": "address",
                    "name": "newOwner",
                    "type": "address"
                }
            ],
            "name": "OwnershipTransferred",
            "type": "event"
        },
        {
            "anonymous": false,
            "inputs": [
                {
                    "indexed": false,
                    "internalType": "bytes32",
                    "name": "storedStateRoot",
                    "type": "bytes32"
                },
                {
                    "indexed": false,
                    "internalType": "bytes32",
                    "name": "provedStateRoot",
                    "type": "bytes32"
                }
            ],
            "name": "ProveNonDeterministicPendingState",
            "type": "event"
        },
        {
            "anonymous": false,
            "inputs": [
                {
                    "indexed": true,
                    "internalType": "uint64",
                    "name": "numBatch",
                    "type": "uint64"
                }
            ],
            "name": "SequenceBatches",
            "type": "event"
        },
        {
            "anonymous": false,
            "inputs": [
                {
                    "indexed": true,
                    "internalType": "uint64",
                    "name": "numBatch",
                    "type": "uint64"
                }
            ],
            "name": "SequenceForceBatches",
            "type": "event"
        },
        {
            "anonymous": false,
            "inputs": [
                {
                    "indexed": false,
                    "internalType": "uint64",
                    "name": "newforceBatchTimeout",
                    "type": "uint64"
                }
            ],
            "name": "SetForceBatchTimeout",
            "type": "event"
        },
        {
            "anonymous": false,
            "inputs": [
                {
                    "indexed": false,
                    "internalType": "uint16",
                    "name": "newMultiplierBatchFee",
                    "type": "uint16"
                }
            ],
            "name": "SetMultiplierBatchFee",
            "type": "event"
        },
        {
            "anonymous": false,
            "inputs": [
                {
                    "indexed": false,
                    "internalType": "uint64",
                    "name": "newPendingStateTimeout",
                    "type": "uint64"
                }
            ],
            "name": "SetPendingStateTimeout",
            "type": "event"
        },
        {
            "anonymous": false,
            "inputs": [
                {
                    "indexed": false,
                    "internalType": "address",
                    "name": "newTrustedAggregator",
                    "type": "address"
                }
            ],
            "name": "SetTrustedAggregator",
            "type": "event"
        },
        {
            "anonymous": false,
            "inputs": [
                {
                    "indexed": false,
                    "internalType": "uint64",
                    "name": "newTrustedAggregatorTimeout",
                    "type": "uint64"
                }
            ],
            "name": "SetTrustedAggregatorTimeout",
            "type": "event"
        },
        {
            "anonymous": false,
            "inputs": [
                {
                    "indexed": false,
                    "internalType": "address",
                    "name": "newTrustedSequencer",
                    "type": "address"
                }
            ],
            "name": "SetTrustedSequencer",
            "type": "event"
        },
        {
            "anonymous": false,
            "inputs": [
                {
                    "indexed": false,
                    "internalType": "string",
                    "name": "newTrustedSequencerURL",
                    "type": "string"
                }
            ],
            "name": "SetTrustedSequencerURL",
            "type": "event"
        },
        {
            "anonymous": false,
            "inputs": [
                {
                    "indexed": false,
                    "internalType": "uint64",
                    "name": "newVerifyBatchTimeTarget",
                    "type": "uint64"
                }
            ],
            "name": "SetVerifyBatchTimeTarget",
            "type": "event"
        },
        {
            "anonymous": false,
            "inputs": [
                {
                    "indexed": false,
                    "internalType": "address",
                    "name": "newPendingAdmin",
                    "type": "address"
                }
            ],
            "name": "TransferAdminRole",
            "type": "event"
        },
        {
            "anonymous": false,
            "inputs": [
                {
                    "indexed": false,
                    "internalType": "uint64",
                    "name": "numBatch",
                    "type": "uint64"
                },
                {
                    "indexed": false,
                    "internalType": "uint64",
                    "name": "forkID",
                    "type": "uint64"
                },
                {
                    "indexed": false,
                    "internalType": "string",
                    "name": "version",
                    "type": "string"
                }
            ],
            "name": "UpdateZkEVMVersion",
            "type": "event"
        },
        {
            "anonymous": false,
            "inputs": [
                {
                    "indexed": true,
                    "internalType": "uint64",
                    "name": "numBatch",
                    "type": "uint64"
                },
                {
                    "indexed": false,
                    "internalType": "bytes32",
                    "name": "stateRoot",
                    "type": "bytes32"
                },
                {
                    "indexed": true,
                    "internalType": "address",
                    "name": "aggregator",
                    "type": "address"
                }
            ],
            "name": "VerifyBatches",
            "type": "event"
        },
        {
            "anonymous": false,
            "inputs": [
                {
                    "indexed": true,
                    "internalType": "uint64",
                    "name": "numBatch",
                    "type": "uint64"
                },
                {
                    "indexed": false,
                    "internalType": "bytes32",
                    "name": "stateRoot",
                    "type": "bytes32"
                },
                {
                    "indexed": true,
                    "internalType": "address",
                    "name": "aggregator",
                    "type": "address"
                }
            ],
            "name": "VerifyBatchesTrustedAggregator",
            "type": "event"
        },
        {
            "inputs": [],
            "name": "acceptAdminRole",
            "outputs": [],
            "stateMutability": "nonpayable",
            "type": "function"
        },
        {
            "inputs": [
                {
                    "internalType": "uint64",
                    "name": "sequencedBatchNum",
                    "type": "uint64"
                }
            ],
            "name": "activateEmergencyState",
            "outputs": [],
            "stateMutability": "nonpayable",
            "type": "function"
        },
        {
            "inputs": [],
            "name": "activateForceBatches",
            "outputs": [],
            "stateMutability": "nonpayable",
            "type": "function"
        },
        {
            "inputs": [],
            "name": "admin",
            "outputs": [
                {
                    "internalType": "address",
                    "name": "",
                    "type": "address"
                }
            ],
            "stateMutability": "view",
            "type": "function"
        },
        {
            "inputs": [],
            "name": "batchFee",
            "outputs": [
                {
                    "internalType": "uint256",
                    "name": "",
                    "type": "uint256"
                }
            ],
            "stateMutability": "view",
            "type": "function"
        },
        {
            "inputs": [
                {
                    "internalType": "uint64",
                    "name": "",
                    "type": "uint64"
                }
            ],
            "name": "batchNumToStateRoot",
            "outputs": [
                {
                    "internalType": "bytes32",
                    "name": "",
                    "type": "bytes32"
                }
            ],
            "stateMutability": "view",
            "type": "function"
        },
        {
            "inputs": [],
            "name": "bridgeAddress",
            "outputs": [
                {
                    "internalType": "contract IPolygonZkEVMBridge",
                    "name": "",
                    "type": "address"
                }
            ],
            "stateMutability": "view",
            "type": "function"
        },
        {
            "inputs": [],
            "name": "calculateRewardPerBatch",
            "outputs": [
                {
                    "internalType": "uint256",
                    "name": "",
                    "type": "uint256"
                }
            ],
            "stateMutability": "view",
            "type": "function"
        },
        {
            "inputs": [],
            "name": "chainID",
            "outputs": [
                {
                    "internalType": "uint64",
                    "name": "",
                    "type": "uint64"
                }
            ],
            "stateMutability": "view",
            "type": "function"
        },
        {
            "inputs": [
                {
                    "internalType": "uint256",
                    "name": "newStateRoot",
                    "type": "uint256"
                }
            ],
            "name": "checkStateRootInsidePrime",
            "outputs": [
                {
                    "internalType": "bool",
                    "name": "",
                    "type": "bool"
                }
            ],
            "stateMutability": "pure",
            "type": "function"
        },
        {
            "inputs": [
                {
                    "internalType": "uint64",
                    "name": "pendingStateNum",
                    "type": "uint64"
                }
            ],
            "name": "consolidatePendingState",
            "outputs": [],
            "stateMutability": "nonpayable",
            "type": "function"
        },
        {
            "inputs": [],
            "name": "deactivateEmergencyState",
            "outputs": [],
            "stateMutability": "nonpayable",
            "type": "function"
        },
        {
            "inputs": [
                {
                    "internalType": "bytes",
                    "name": "transactions",
                    "type": "bytes"
                },
                {
                    "internalType": "uint256",
                    "name": "maticAmount",
                    "type": "uint256"
                }
            ],
            "name": "forceBatch",
            "outputs": [],
            "stateMutability": "nonpayable",
            "type": "function"
        },
        {
            "inputs": [],
            "name": "forceBatchTimeout",
            "outputs": [
                {
                    "internalType": "uint64",
                    "name": "",
                    "type": "uint64"
                }
            ],
            "stateMutability": "view",
            "type": "function"
        },
        {
            "inputs": [
                {
                    "internalType": "uint64",
                    "name": "",
                    "type": "uint64"
                }
            ],
            "name": "forcedBatches",
            "outputs": [
                {
                    "internalType": "bytes32",
                    "name": "",
                    "type": "bytes32"
                }
            ],
            "stateMutability": "view",
            "type": "function"
        },
        {
            "inputs": [],
            "name": "forkID",
            "outputs": [
                {
                    "internalType": "uint64",
                    "name": "",
                    "type": "uint64"
                }
            ],
            "stateMutability": "view",
            "type": "function"
        },
        {
            "inputs": [],
            "name": "getForcedBatchFee",
            "outputs": [
                {
                    "internalType": "uint256",
                    "name": "",
                    "type": "uint256"
                }
            ],
            "stateMutability": "view",
            "type": "function"
        },
        {
            "inputs": [
                {
                    "internalType": "uint64",
                    "name": "initNumBatch",
                    "type": "uint64"
                },
                {
                    "internalType": "uint64",
                    "name": "finalNewBatch",
                    "type": "uint64"
                },
                {
                    "internalType": "bytes32",
                    "name": "newLocalExitRoot",
                    "type": "bytes32"
                },
                {
                    "internalType": "bytes32",
                    "name": "oldStateRoot",
                    "type": "bytes32"
                },
                {
                    "internalType": "bytes32",
                    "name": "newStateRoot",
                    "type": "bytes32"
                }
            ],
            "name": "getInputSnarkBytes",
            "outputs": [
                {
                    "internalType": "bytes",
                    "name": "",
                    "type": "bytes"
                }
            ],
            "stateMutability": "view",
            "type": "function"
        },
        {
            "inputs": [],
            "name": "getLastVerifiedBatch",
            "outputs": [
                {
                    "internalType": "uint64",
                    "name": "",
                    "type": "uint64"
                }
            ],
            "stateMutability": "view",
            "type": "function"
        },
        {
            "inputs": [],
            "name": "globalExitRootManager",
            "outputs": [
                {
                    "internalType": "contract IPolygonZkEVMGlobalExitRoot",
                    "name": "",
                    "type": "address"
                }
            ],
            "stateMutability": "view",
            "type": "function"
        },
        {
            "inputs": [
                {
                    "components": [
                        {
                            "internalType": "address",
                            "name": "admin",
                            "type": "address"
                        },
                        {
                            "internalType": "address",
                            "name": "trustedSequencer",
                            "type": "address"
                        },
                        {
                            "internalType": "uint64",
                            "name": "pendingStateTimeout",
                            "type": "uint64"
                        },
                        {
                            "internalType": "address",
                            "name": "trustedAggregator",
                            "type": "address"
                        },
                        {
                            "internalType": "uint64",
                            "name": "trustedAggregatorTimeout",
                            "type": "uint64"
                        }
                    ],
                    "internalType": "struct PolygonZkEVM.InitializePackedParameters",
                    "name": "initializePackedParameters",
                    "type": "tuple"
                },
                {
                    "internalType": "bytes32",
                    "name": "genesisRoot",
                    "type": "bytes32"
                },
                {
                    "internalType": "string",
                    "name": "_trustedSequencerURL",
                    "type": "string"
                },
                {
                    "internalType": "string",
                    "name": "_networkName",
                    "type": "string"
                },
                {
                    "internalType": "string",
                    "name": "_version",
                    "type": "string"
                }
            ],
            "name": "initialize",
            "outputs": [],
            "stateMutability": "nonpayable",
            "type": "function"
        },
        {
            "inputs": [],
            "name": "isEmergencyState",
            "outputs": [
                {
                    "internalType": "bool",
                    "name": "",
                    "type": "bool"
                }
            ],
            "stateMutability": "view",
            "type": "function"
        },
        {
            "inputs": [],
            "name": "isForcedBatchDisallowed",
            "outputs": [
                {
                    "internalType": "bool",
                    "name": "",
                    "type": "bool"
                }
            ],
            "stateMutability": "view",
            "type": "function"
        },
        {
            "inputs": [
                {
                    "internalType": "uint64",
                    "name": "pendingStateNum",
                    "type": "uint64"
                }
            ],
            "name": "isPendingStateConsolidable",
            "outputs": [
                {
                    "internalType": "bool",
                    "name": "",
                    "type": "bool"
                }
            ],
            "stateMutability": "view",
            "type": "function"
        },
        {
            "inputs": [],
            "name": "lastBatchSequenced",
            "outputs": [
                {
                    "internalType": "uint64",
                    "name": "",
                    "type": "uint64"
                }
            ],
            "stateMutability": "view",
            "type": "function"
        },
        {
            "inputs": [],
            "name": "lastForceBatch",
            "outputs": [
                {
                    "internalType": "uint64",
                    "name": "",
                    "type": "uint64"
                }
            ],
            "stateMutability": "view",
            "type": "function"
        },
        {
            "inputs": [],
            "name": "lastForceBatchSequenced",
            "outputs": [
                {
                    "internalType": "uint64",
                    "name": "",
                    "type": "uint64"
                }
            ],
            "stateMutability": "view",
            "type": "function"
        },
        {
            "inputs": [],
            "name": "lastPendingState",
            "outputs": [
                {
                    "internalType": "uint64",
                    "name": "",
                    "type": "uint64"
                }
            ],
            "stateMutability": "view",
            "type": "function"
        },
        {
            "inputs": [],
            "name": "lastPendingStateConsolidated",
            "outputs": [
                {
                    "internalType": "uint64",
                    "name": "",
                    "type": "uint64"
                }
            ],
            "stateMutability": "view",
            "type": "function"
        },
        {
            "inputs": [],
            "name": "lastTimestamp",
            "outputs": [
                {
                    "internalType": "uint64",
                    "name": "",
                    "type": "uint64"
                }
            ],
            "stateMutability": "view",
            "type": "function"
        },
        {
            "inputs": [],
            "name": "lastVerifiedBatch",
            "outputs": [
                {
                    "internalType": "uint64",
                    "name": "",
                    "type": "uint64"
                }
            ],
            "stateMutability": "view",
            "type": "function"
        },
        {
            "inputs": [],
            "name": "matic",
            "outputs": [
                {
                    "internalType": "contract IERC20Upgradeable",
                    "name": "",
                    "type": "address"
                }
            ],
            "stateMutability": "view",
            "type": "function"
        },
        {
            "inputs": [],
            "name": "multiplierBatchFee",
            "outputs": [
                {
                    "internalType": "uint16",
                    "name": "",
                    "type": "uint16"
                }
            ],
            "stateMutability": "view",
            "type": "function"
        },
        {
            "inputs": [],
            "name": "networkName",
            "outputs": [
                {
                    "internalType": "string",
                    "name": "",
                    "type": "string"
                }
            ],
            "stateMutability": "view",
            "type": "function"
        },
        {
            "inputs": [
                {
                    "internalType": "uint64",
                    "name": "initPendingStateNum",
                    "type": "uint64"
                },
                {
                    "internalType": "uint64",
                    "name": "finalPendingStateNum",
                    "type": "uint64"
                },
                {
                    "internalType": "uint64",
                    "name": "initNumBatch",
                    "type": "uint64"
                },
                {
                    "internalType": "uint64",
                    "name": "finalNewBatch",
                    "type": "uint64"
                },
                {
                    "internalType": "bytes32",
                    "name": "newLocalExitRoot",
                    "type": "bytes32"
                },
                {
                    "internalType": "bytes32",
                    "name": "newStateRoot",
                    "type": "bytes32"
                },
                {
                    "internalType": "bytes32[24]",
                    "name": "proof",
                    "type": "bytes32[24]"
                }
            ],
            "name": "overridePendingState",
            "outputs": [],
            "stateMutability": "nonpayable",
            "type": "function"
        },
        {
            "inputs": [],
            "name": "owner",
            "outputs": [
                {
                    "internalType": "address",
                    "name": "",
                    "type": "address"
                }
            ],
            "stateMutability": "view",
            "type": "function"
        },
        {
            "inputs": [],
            "name": "pendingAdmin",
            "outputs": [
                {
                    "internalType": "address",
                    "name": "",
                    "type": "address"
                }
            ],
            "stateMutability": "view",
            "type": "function"
        },
        {
            "inputs": [],
            "name": "pendingStateTimeout",
            "outputs": [
                {
                    "internalType": "uint64",
                    "name": "",
                    "type": "uint64"
                }
            ],
            "stateMutability": "view",
            "type": "function"
        },
        {
            "inputs": [
                {
                    "internalType": "uint256",
                    "name": "",
                    "type": "uint256"
                }
            ],
            "name": "pendingStateTransitions",
            "outputs": [
                {
                    "internalType": "uint64",
                    "name": "timestamp",
                    "type": "uint64"
                },
                {
                    "internalType": "uint64",
                    "name": "lastVerifiedBatch",
                    "type": "uint64"
                },
                {
                    "internalType": "bytes32",
                    "name": "exitRoot",
                    "type": "bytes32"
                },
                {
                    "internalType": "bytes32",
                    "name": "stateRoot",
                    "type": "bytes32"
                }
            ],
            "stateMutability": "view",
            "type": "function"
        },
        {
            "inputs": [
                {
                    "internalType": "uint64",
                    "name": "initPendingStateNum",
                    "type": "uint64"
                },
                {
                    "internalType": "uint64",
                    "name": "finalPendingStateNum",
                    "type": "uint64"
                },
                {
                    "internalType": "uint64",
                    "name": "initNumBatch",
                    "type": "uint64"
                },
                {
                    "internalType": "uint64",
                    "name": "finalNewBatch",
                    "type": "uint64"
                },
                {
                    "internalType": "bytes32",
                    "name": "newLocalExitRoot",
                    "type": "bytes32"
                },
                {
                    "internalType": "bytes32",
                    "name": "newStateRoot",
                    "type": "bytes32"
                },
                {
                    "internalType": "bytes32[24]",
                    "name": "proof",
                    "type": "bytes32[24]"
                }
            ],
            "name": "proveNonDeterministicPendingState",
            "outputs": [],
            "stateMutability": "nonpayable",
            "type": "function"
        },
        {
            "inputs": [],
            "name": "renounceOwnership",
            "outputs": [],
            "stateMutability": "nonpayable",
            "type": "function"
        },
        {
            "inputs": [],
            "name": "rollupVerifier",
            "outputs": [
                {
                    "internalType": "contract IVerifierRollup",
                    "name": "",
                    "type": "address"
                }
            ],
            "stateMutability": "view",
            "type": "function"
        },
        {
            "inputs": [
                {
                    "components": [
                        {
                            "internalType": "bytes",
                            "name": "transactions",
                            "type": "bytes"
                        },
                        {
                            "internalType": "bytes32",
                            "name": "globalExitRoot",
                            "type": "bytes32"
                        },
                        {
                            "internalType": "uint64",
                            "name": "timestamp",
                            "type": "uint64"
                        },
                        {
                            "internalType": "uint64",
                            "name": "minForcedTimestamp",
                            "type": "uint64"
                        }
                    ],
                    "internalType": "struct PolygonZkEVM.BatchData[]",
                    "name": "batches",
                    "type": "tuple[]"
                },
                {
                    "internalType": "address",
                    "name": "l2Coinbase",
                    "type": "address"
                }
            ],
            "name": "sequenceBatches",
            "outputs": [],
            "stateMutability": "nonpayable",
            "type": "function"
        },
        {
            "inputs": [
                {
                    "components": [
                        {
                            "internalType": "bytes",
                            "name": "transactions",
                            "type": "bytes"
                        },
                        {
                            "internalType": "bytes32",
                            "name": "globalExitRoot",
                            "type": "bytes32"
                        },
                        {
                            "internalType": "uint64",
                            "name": "minForcedTimestamp",
                            "type": "uint64"
                        }
                    ],
                    "internalType": "struct PolygonZkEVM.ForcedBatchData[]",
                    "name": "batches",
                    "type": "tuple[]"
                }
            ],
            "name": "sequenceForceBatches",
            "outputs": [],
            "stateMutability": "nonpayable",
            "type": "function"
        },
        {
            "inputs": [
                {
                    "internalType": "uint64",
                    "name": "",
                    "type": "uint64"
                }
            ],
            "name": "sequencedBatches",
            "outputs": [
                {
                    "internalType": "bytes32",
                    "name": "accInputHash",
                    "type": "bytes32"
                },
                {
                    "internalType": "uint64",
                    "name": "sequencedTimestamp",
                    "type": "uint64"
                },
                {
                    "internalType": "uint64",
                    "name": "previousLastBatchSequenced",
                    "type": "uint64"
                }
            ],
            "stateMutability": "view",
            "type": "function"
        },
        {
            "inputs": [
                {
                    "internalType": "uint64",
                    "name": "newforceBatchTimeout",
                    "type": "uint64"
                }
            ],
            "name": "setForceBatchTimeout",
            "outputs": [],
            "stateMutability": "nonpayable",
            "type": "function"
        },
        {
            "inputs": [
                {
                    "internalType": "uint16",
                    "name": "newMultiplierBatchFee",
                    "type": "uint16"
                }
            ],
            "name": "setMultiplierBatchFee",
            "outputs": [],
            "stateMutability": "nonpayable",
            "type": "function"
        },
        {
            "inputs": [
                {
                    "internalType": "uint64",
                    "name": "newPendingStateTimeout",
                    "type": "uint64"
                }
            ],
            "name": "setPendingStateTimeout",
            "outputs": [],
            "stateMutability": "nonpayable",
            "type": "function"
        },
        {
            "inputs": [
                {
                    "internalType": "address",
                    "name": "newTrustedAggregator",
                    "type": "address"
                }
            ],
            "name": "setTrustedAggregator",
            "outputs": [],
            "stateMutability": "nonpayable",
            "type": "function"
        },
        {
            "inputs": [
                {
                    "internalType": "uint64",
                    "name": "newTrustedAggregatorTimeout",
                    "type": "uint64"
                }
            ],
            "name": "setTrustedAggregatorTimeout",
            "outputs": [],
            "stateMutability": "nonpayable",
            "type": "function"
        },
        {
            "inputs": [
                {
                    "internalType": "address",
                    "name": "newTrustedSequencer",
                    "type": "address"
                }
            ],
            "name": "setTrustedSequencer",
            "outputs": [],
            "stateMutability": "nonpayable",
            "type": "function"
        },
        {
            "inputs": [
                {
                    "internalType": "string",
                    "name": "newTrustedSequencerURL",
                    "type": "string"
                }
            ],
            "name": "setTrustedSequencerURL",
            "outputs": [],
            "stateMutability": "nonpayable",
            "type": "function"
        },
        {
            "inputs": [
                {
                    "internalType": "uint64",
                    "name": "newVerifyBatchTimeTarget",
                    "type": "uint64"
                }
            ],
            "name": "setVerifyBatchTimeTarget",
            "outputs": [],
            "stateMutability": "nonpayable",
            "type": "function"
        },
        {
            "inputs": [
                {
                    "internalType": "address",
                    "name": "newPendingAdmin",
                    "type": "address"
                }
            ],
            "name": "transferAdminRole",
            "outputs": [],
            "stateMutability": "nonpayable",
            "type": "function"
        },
        {
            "inputs": [
                {
                    "internalType": "address",
                    "name": "newOwner",
                    "type": "address"
                }
            ],
            "name": "transferOwnership",
            "outputs": [],
            "stateMutability": "nonpayable",
            "type": "function"
        },
        {
            "inputs": [],
            "name": "trustedAggregator",
            "outputs": [
                {
                    "internalType": "address",
                    "name": "",
                    "type": "address"
                }
            ],
            "stateMutability": "view",
            "type": "function"
        },
        {
            "inputs": [],
            "name": "trustedAggregatorTimeout",
            "outputs": [
                {
                    "internalType": "uint64",
                    "name": "",
                    "type": "uint64"
                }
            ],
            "stateMutability": "view",
            "type": "function"
        },
        {
            "inputs": [],
            "name": "trustedSequencer",
            "outputs": [
                {
                    "internalType": "address",
                    "name": "",
                    "type": "address"
                }
            ],
            "stateMutability": "view",
            "type": "function"
        },
        {
            "inputs": [],
            "name": "trustedSequencerURL",
            "outputs": [
                {
                    "internalType": "string",
                    "name": "",
                    "type": "string"
                }
            ],
            "stateMutability": "view",
            "type": "function"
        },
        {
            "inputs": [],
            "name": "verifyBatchTimeTarget",
            "outputs": [
                {
                    "internalType": "uint64",
                    "name": "",
                    "type": "uint64"
                }
            ],
            "stateMutability": "view",
            "type": "function"
        },
        {
            "inputs": [
                {
                    "internalType": "uint64",
                    "name": "pendingStateNum",
                    "type": "uint64"
                },
                {
                    "internalType": "uint64",
                    "name": "initNumBatch",
                    "type": "uint64"
                },
                {
                    "internalType": "uint64",
                    "name": "finalNewBatch",
                    "type": "uint64"
                },
                {
                    "internalType": "bytes32",
                    "name": "newLocalExitRoot",
                    "type": "bytes32"
                },
                {
                    "internalType": "bytes32",
                    "name": "newStateRoot",
                    "type": "bytes32"
                },
                {
                    "internalType": "bytes32[24]",
                    "name": "proof",
                    "type": "bytes32[24]"
                }
            ],
            "name": "verifyBatches",
            "outputs": [],
            "stateMutability": "nonpayable",
            "type": "function"
        },
        {
            "inputs": [
                {
                    "internalType": "uint64",
                    "name": "pendingStateNum",
                    "type": "uint64"
                },
                {
                    "internalType": "uint64",
                    "name": "initNumBatch",
                    "type": "uint64"
                },
                {
                    "internalType": "uint64",
                    "name": "finalNewBatch",
                    "type": "uint64"
                },
                {
                    "internalType": "bytes32",
                    "name": "newLocalExitRoot",
                    "type": "bytes32"
                },
                {
                    "internalType": "bytes32",
                    "name": "newStateRoot",
                    "type": "bytes32"
                },
                {
                    "internalType": "bytes32[24]",
                    "name": "proof",
                    "type": "bytes32[24]"
                }
            ],
            "name": "verifyBatchesTrustedAggregator",
            "outputs": [],
            "stateMutability": "nonpayable",
            "type": "function"
        }
    ],
    "bytecode": "0x6101406040523480156200001257600080fd5b5060405162007e5838038062007e588339818101604052810190620000389190620002e0565b8573ffffffffffffffffffffffffffffffffffffffff1660c08173ffffffffffffffffffffffffffffffffffffffff16815250508473ffffffffffffffffffffffffffffffffffffffff1660808173ffffffffffffffffffffffffffffffffffffffff16815250508373ffffffffffffffffffffffffffffffffffffffff1660a08173ffffffffffffffffffffffffffffffffffffffff16815250508273ffffffffffffffffffffffffffffffffffffffff1660e08173ffffffffffffffffffffffffffffffffffffffff16815250508167ffffffffffffffff166101008167ffffffffffffffff16815250508067ffffffffffffffff166101208167ffffffffffffffff16815250505050505050506200037c565b600080fd5b600073ffffffffffffffffffffffffffffffffffffffff82169050919050565b6000620001808262000153565b9050919050565b6000620001948262000173565b9050919050565b620001a68162000187565b8114620001b257600080fd5b50565b600081519050620001c6816200019b565b92915050565b6000620001d98262000173565b9050919050565b620001eb81620001cc565b8114620001f757600080fd5b50565b6000815190506200020b81620001e0565b92915050565b60006200021e8262000173565b9050919050565b620002308162000211565b81146200023c57600080fd5b50565b600081519050620002508162000225565b92915050565b6000620002638262000173565b9050919050565b620002758162000256565b81146200028157600080fd5b50565b60008151905062000295816200026a565b92915050565b600067ffffffffffffffff82169050919050565b620002ba816200029b565b8114620002c657600080fd5b50565b600081519050620002da81620002af565b92915050565b60008060008060008060c087890312156200030057620002ff6200014e565b5b60006200031089828a01620001b5565b96505060206200032389828a01620001fa565b95505060406200033689828a016200023f565b94505060606200034989828a0162000284565b93505060806200035c89828a01620002c9565b92505060a06200036f89828a01620002c9565b9150509295509295509295565b60805160a05160c05160e0516101005161012051617a0e6200044a60003960008181610e6a01528181612b090152613a59015260008181610e49015261331e015260008181612170015281816131f80152818161411c0152615786015260008181611078015281816112cd01528181611d2d015281816125b60152818161360b0152818161434601526151ab0152600081816141c001528181614a0e0152614f0d01526000818161212101528181612d11015281816133a8015281816142fd0152614b1a0152617a0e6000f3fe608060405234801561001057600080fd5b50600436106103ba5760003560e01c8063841b24d7116101f4578063c754c7ed1161011a578063e7a7ed02116100ad578063f14916d61161007c578063f14916d614610a9a578063f2fde38b14610ab6578063f851a44014610ad2578063f8b823e414610af0576103ba565b8063e7a7ed0214610a24578063e8bf92ed14610a42578063eaeb077b14610a60578063ed6b010414610a7c576103ba565b8063d2e129f9116100e9578063d2e129f9146109c4578063d8d1091b146109e0578063d939b315146109fc578063dbc1697614610a1a576103ba565b8063c754c7ed1461094e578063c89e42df1461096c578063cfa8ed4714610988578063d02103ca146109a6576103ba565b8063a3c573eb11610192578063b4d63f5811610161578063b4d63f58146108b0578063b6b0b097146108e2578063ba58ae3914610900578063c0ed84e014610930576103ba565b8063a3c573eb1461083a578063ada8f91914610858578063adc879e914610874578063afd23cbe14610892576103ba565b806399f5634e116101ce57806399f5634e146107c85780639aa972a3146107e65780639c9f3dfe14610802578063a066215c1461081e576103ba565b8063841b24d7146107825780638c3d7301146107a05780638da5cb5b146107aa576103ba565b80634a1a89a7116102e4578063621dd411116102775780637215541a116102465780637215541a146106f75780637fcb365314610713578063831c7ead14610731578063837a47381461074f576103ba565b8063621dd411146106855780636b8616ce146106a15780636ff512cc146106d1578063715018a6146106ed576103ba565b8063542028d5116102b3578063542028d5146106235780635e9145c9146106415780635ec919581461065d5780636046916914610667576103ba565b80634a1a89a71461059d5780634a910e6a146105bb5780634e487706146105d75780635392c5e0146105f3576103ba565b8063298789831161035c578063394218e91161032b578063394218e914610527578063423fa856146105435780634560526714610561578063458c04771461057f576103ba565b806329878983146104a15780632b0006fa146104bf5780632c1f816a146104db578063383b3be8146104f7576103ba565b80631816b7e5116103985780631816b7e51461041957806319d8ac6114610435578063220d7899146104535780632678224714610483576103ba565b80630a0d9fbe146103bf578063107bf28c146103dd57806315064c96146103fb575b600080fd5b6103c7610b0e565b6040516103d49190615d77565b60405180910390f35b6103e5610b28565b6040516103f29190615e2b565b60405180910390f35b610403610bb6565b6040516104109190615e68565b60405180910390f35b610433600480360381019061042e9190615ed1565b610bc9565b005b61043d610cf7565b60405161044a9190615d77565b60405180910390f35b61046d60048036038101906104689190615f60565b610d11565b60405161047a9190616030565b60405180910390f35b61048b610ec2565b6040516104989190616093565b60405180910390f35b6104a9610ee8565b6040516104b69190616093565b60405180910390f35b6104d960048036038101906104d491906160d5565b610f0e565b005b6104f560048036038101906104f09190616163565b611162565b005b610511600480360381019061050c9190616206565b6113e4565b60405161051e9190615e68565b60405180910390f35b610541600480360381019061053c9190616206565b611450565b005b61054b611603565b6040516105589190615d77565b60405180910390f35b61056961161d565b6040516105769190615d77565b60405180910390f35b610587611637565b6040516105949190615d77565b60405180910390f35b6105a5611651565b6040516105b29190615d77565b60405180910390f35b6105d560048036038101906105d09190616206565b61166b565b005b6105f160048036038101906105ec9190616206565b611753565b005b61060d60048036038101906106089190616206565b611906565b60405161061a9190616242565b60405180910390f35b61062b61191e565b6040516106389190615e2b565b60405180910390f35b61065b600480360381019061065691906162e9565b6119ac565b005b610665612231565b005b61066f612347565b60405161067c9190616362565b60405180910390f35b61069f600480360381019061069a91906160d5565b61235d565b005b6106bb60048036038101906106b69190616206565b6127d8565b6040516106c89190616242565b60405180910390f35b6106eb60048036038101906106e6919061637d565b6127f0565b005b6106f56128f2565b005b610711600480360381019061070c9190616206565b612906565b005b61071b612aed565b6040516107289190615d77565b60405180910390f35b610739612b07565b6040516107469190615d77565b60405180910390f35b610769600480360381019061076491906163d6565b612b2b565b6040516107799493929190616403565b60405180910390f35b61078a612b83565b6040516107979190615d77565b60405180910390f35b6107a8612b9d565b005b6107b2612ce2565b6040516107bf9190616093565b60405180910390f35b6107d0612d0c565b6040516107dd9190616362565b60405180910390f35b61080060048036038101906107fb9190616163565b612e4b565b005b61081c60048036038101906108179190616206565b612f12565b005b61083860048036038101906108339190616206565b6130c5565b005b6108426131f6565b60405161084f91906164a7565b60405180910390f35b610872600480360381019061086d919061637d565b61321a565b005b61087c61331c565b6040516108899190615d77565b60405180910390f35b61089a613340565b6040516108a791906164d1565b60405180910390f35b6108ca60048036038101906108c59190616206565b613354565b6040516108d9939291906164ec565b60405180910390f35b6108ea6133a6565b6040516108f79190616544565b60405180910390f35b61091a600480360381019061091591906163d6565b6133ca565b6040516109279190615e68565b60405180910390f35b610938613458565b6040516109459190615d77565b60405180910390f35b6109566134f1565b6040516109639190615d77565b60405180910390f35b6109866004803603810190610981919061668f565b61350b565b005b6109906135e3565b60405161099d9190616093565b60405180910390f35b6109ae613609565b6040516109bb91906166f9565b60405180910390f35b6109de60048036038101906109d9919061678e565b61362d565b005b6109fa60048036038101906109f591906168b8565b613af4565b005b610a04614079565b604051610a119190615d77565b60405180910390f35b610a22614093565b005b610a2c6141a4565b604051610a399190615d77565b60405180910390f35b610a4a6141be565b604051610a579190616926565b60405180910390f35b610a7a6004803603810190610a759190616997565b6141e2565b005b610a8461459d565b604051610a919190615e68565b60405180910390f35b610ab46004803603810190610aaf919061637d565b6145b0565b005b610ad06004803603810190610acb919061637d565b6146b2565b005b610ada614735565b604051610ae79190616093565b60405180910390f35b610af861475b565b604051610b059190616362565b60405180910390f35b606f60019054906101000a900467ffffffffffffffff1681565b60778054610b3590616a26565b80601f0160208091040260200160405190810160405280929190818152602001828054610b6190616a26565b8015610bae5780601f10610b8357610100808354040283529160200191610bae565b820191906000526020600020905b815481529060010190602001808311610b9157829003601f168201915b505050505081565b606f60009054906101000a900460ff1681565b3373ffffffffffffffffffffffffffffffffffffffff16607a60009054906101000a900473ffffffffffffffffffffffffffffffffffffffff1673ffffffffffffffffffffffffffffffffffffffff1614610c50576040517f4755657900000000000000000000000000000000000000000000000000000000815260040160405180910390fd5b6103e88161ffff161080610c6957506103ff8161ffff16115b15610ca0576040517f4c2533c800000000000000000000000000000000000000000000000000000000815260040160405180910390fd5b80606f60096101000a81548161ffff021916908361ffff1602179055507f7019933d795eba185c180209e8ae8bffbaa25bcef293364687702c31f4d302c581604051610cec91906164d1565b60405180910390a150565b607360009054906101000a900467ffffffffffffffff1681565b60606000607260008867ffffffffffffffff1667ffffffffffffffff1681526020019081526020016000206000015490506000607260008867ffffffffffffffff1667ffffffffffffffff16815260200190815260200160002060000154905060008867ffffffffffffffff1614158015610d8e57506000801b82145b15610dc5576040517f6818c29e00000000000000000000000000000000000000000000000000000000815260040160405180910390fd5b6000801b8103610e01576040517f66385b5100000000000000000000000000000000000000000000000000000000815260040160405180910390fd5b610e0d8460001c6133ca565b610e43576040517f176b913c00000000000000000000000000000000000000000000000000000000815260040160405180910390fd5b3385838a7f00000000000000000000000000000000000000000000000000000000000000007f000000000000000000000000000000000000000000000000000000000000000089878d8f604051602001610ea69a99989796959493929190616af6565b6040516020818303038152906040529250505095945050505050565b607b60009054906101000a900473ffffffffffffffffffffffffffffffffffffffff1681565b607460089054906101000a900473ffffffffffffffffffffffffffffffffffffffff1681565b3373ffffffffffffffffffffffffffffffffffffffff16607460089054906101000a900473ffffffffffffffffffffffffffffffffffffffff1673ffffffffffffffffffffffffffffffffffffffff1614610f95576040517fbbcbbc0500000000000000000000000000000000000000000000000000000000815260040160405180910390fd5b610fa3868686868686614761565b83607460006101000a81548167ffffffffffffffff021916908367ffffffffffffffff16021790555081607560008667ffffffffffffffff1667ffffffffffffffff168152602001908152602001600020819055506000607960009054906101000a900467ffffffffffffffff1667ffffffffffffffff161115611076576000607960006101000a81548167ffffffffffffffff021916908367ffffffffffffffff1602179055506000607960086101000a81548167ffffffffffffffff021916908367ffffffffffffffff1602179055505b7f000000000000000000000000000000000000000000000000000000000000000073ffffffffffffffffffffffffffffffffffffffff166333d6247d846040518263ffffffff1660e01b81526004016110cf9190616242565b600060405180830381600087803b1580156110e957600080fd5b505af11580156110fd573d6000803e3d6000fd5b505050503373ffffffffffffffffffffffffffffffffffffffff168467ffffffffffffffff167fcb339b570a7f0b25afa7333371ff11192092a0aeace12b671f4c212f2815c6fe846040516111529190616242565b60405180910390a3505050505050565b3373ffffffffffffffffffffffffffffffffffffffff16607460089054906101000a900473ffffffffffffffffffffffffffffffffffffffff1673ffffffffffffffffffffffffffffffffffffffff16146111e9576040517fbbcbbc0500000000000000000000000000000000000000000000000000000000815260040160405180910390fd5b6111f887878787878787614b6a565b83607460006101000a81548167ffffffffffffffff021916908367ffffffffffffffff16021790555081607560008667ffffffffffffffff1667ffffffffffffffff168152602001908152602001600020819055506000607960009054906101000a900467ffffffffffffffff1667ffffffffffffffff1611156112cb576000607960006101000a81548167ffffffffffffffff021916908367ffffffffffffffff1602179055506000607960086101000a81548167ffffffffffffffff021916908367ffffffffffffffff1602179055505b7f000000000000000000000000000000000000000000000000000000000000000073ffffffffffffffffffffffffffffffffffffffff166333d6247d846040518263ffffffff1660e01b81526004016113249190616242565b600060405180830381600087803b15801561133e57600080fd5b505af1158015611352573d6000803e3d6000fd5b5050505062093a80607960186101000a81548167ffffffffffffffff021916908367ffffffffffffffff1602179055503373ffffffffffffffffffffffffffffffffffffffff168467ffffffffffffffff167fcc1b5520188bf1dd3e63f98164b577c4d75c11a619ddea692112f0d1aec4cf72846040516113d39190616242565b60405180910390a350505050505050565b600042607960109054906101000a900467ffffffffffffffff16607860008567ffffffffffffffff16815260200190815260200160002060000160009054906101000a900467ffffffffffffffff1661143d9190616bd9565b67ffffffffffffffff1611159050919050565b3373ffffffffffffffffffffffffffffffffffffffff16607a60009054906101000a900473ffffffffffffffffffffffffffffffffffffffff1673ffffffffffffffffffffffffffffffffffffffff16146114d7576040517f4755657900000000000000000000000000000000000000000000000000000000815260040160405180910390fd5b62093a8067ffffffffffffffff168167ffffffffffffffff161115611528576040517f1d06e87900000000000000000000000000000000000000000000000000000000815260040160405180910390fd5b606f60009054906101000a900460ff166115a057607960189054906101000a900467ffffffffffffffff1667ffffffffffffffff168167ffffffffffffffff161061159f576040517f401636df00000000000000000000000000000000000000000000000000000000815260040160405180910390fd5b5b80607960186101000a81548167ffffffffffffffff021916908367ffffffffffffffff1602179055507f1f4fa24c2e4bad19a7f3ec5c5485f70d46c798461c2e684f55bbd0fc661373a1816040516115f89190615d77565b60405180910390a150565b607360089054906101000a900467ffffffffffffffff1681565b607360109054906101000a900467ffffffffffffffff1681565b607960009054906101000a900467ffffffffffffffff1681565b607960089054906101000a900467ffffffffffffffff1681565b607460089054906101000a900473ffffffffffffffffffffffffffffffffffffffff1673ffffffffffffffffffffffffffffffffffffffff163373ffffffffffffffffffffffffffffffffffffffff161461174757606f60009054906101000a900460ff1615611707576040517f2f0047fc00000000000000000000000000000000000000000000000000000000815260040160405180910390fd5b611710816113e4565b611746576040517f0ce9e4a200000000000000000000000000000000000000000000000000000000815260040160405180910390fd5b5b61175081615050565b50565b3373ffffffffffffffffffffffffffffffffffffffff16607a60009054906101000a900473ffffffffffffffffffffffffffffffffffffffff1673ffffffffffffffffffffffffffffffffffffffff16146117da576040517f4755657900000000000000000000000000000000000000000000000000000000815260040160405180910390fd5b62093a8067ffffffffffffffff168167ffffffffffffffff16111561182b576040517ff5e37f2f00000000000000000000000000000000000000000000000000000000815260040160405180910390fd5b606f60009054906101000a900460ff166118a357607b60149054906101000a900467ffffffffffffffff1667ffffffffffffffff168167ffffffffffffffff16106118a2576040517ff5e37f2f00000000000000000000000000000000000000000000000000000000815260040160405180910390fd5b5b80607b60146101000a81548167ffffffffffffffff021916908367ffffffffffffffff1602179055507fa7eb6cb8a613eb4e8bddc1ac3d61ec6cf10898760f0b187bcca794c6ca6fa40b816040516118fb9190615d77565b60405180910390a150565b60756020528060005260406000206000915090505481565b6076805461192b90616a26565b80601f016020809104026020016040519081016040528092919081815260200182805461195790616a26565b80156119a45780601f10611979576101008083540402835291602001916119a4565b820191906000526020600020905b81548152906001019060200180831161198757829003601f168201915b505050505081565b606f60009054906101000a900460ff16156119f3576040517f2f0047fc00000000000000000000000000000000000000000000000000000000815260040160405180910390fd5b3373ffffffffffffffffffffffffffffffffffffffff16606f600b9054906101000a900473ffffffffffffffffffffffffffffffffffffffff1673ffffffffffffffffffffffffffffffffffffffff1614611a7a576040517f11e7be1500000000000000000000000000000000000000000000000000000000815260040160405180910390fd5b600083839050905060008103611abc576040517fcb591a5f00000000000000000000000000000000000000000000000000000000815260040160405180910390fd5b6103e867ffffffffffffffff16811115611b02576040517fb59f753a00000000000000000000000000000000000000000000000000000000815260040160405180910390fd5b6000607360009054906101000a900467ffffffffffffffff1690506000607360089054906101000a900467ffffffffffffffff1690506000607360109054906101000a900467ffffffffffffffff1690506000607260008467ffffffffffffffff1667ffffffffffffffff168152602001908152602001600020600001549050600082905060005b86811015611f065760008a8a83818110611ba757611ba6616c17565b5b9050602002810190611bb99190616c4b565b611bc290616db2565b9050600081600001518051906020012090506000826060015167ffffffffffffffff161115611d17578580611bf690616dc5565b96505060008183602001518460600151604051602001611c1893929190616df5565b604051602081830303815290604052805190602001209050607160008867ffffffffffffffff1667ffffffffffffffff168152602001908152602001600020548114611c90576040517fce3d755e00000000000000000000000000000000000000000000000000000000815260040160405180910390fd5b607160008867ffffffffffffffff1667ffffffffffffffff16815260200190815260200160002060009055826060015167ffffffffffffffff16836040015167ffffffffffffffff161015611d11576040517f7f7ab87200000000000000000000000000000000000000000000000000000000815260040160405180910390fd5b50611e47565b6000801b826020015114158015611dcd575060007f000000000000000000000000000000000000000000000000000000000000000073ffffffffffffffffffffffffffffffffffffffff1663257b363284602001516040518263ffffffff1660e01b8152600401611d889190616242565b6020604051808303816000875af1158015611da7573d6000803e3d6000fd5b505050506040513d601f19601f82011682018060405250810190611dcb9190616e47565b145b15611e04576040517f73bd668d00000000000000000000000000000000000000000000000000000000815260040160405180910390fd5b6201d4c08260000151511115611e46576040517fa29a6c7c00000000000000000000000000000000000000000000000000000000815260040160405180910390fd5b5b8767ffffffffffffffff16826040015167ffffffffffffffff161080611e7a575042826040015167ffffffffffffffff16115b15611eb1576040517fea82791600000000000000000000000000000000000000000000000000000000815260040160405180910390fd5b8481836020015184604001518d604051602001611ed2959493929190616e74565b6040516020818303038152906040528051906020012094508160400151975050508080611efe90616ed3565b915050611b8a565b508584611f139190616bd9565b9350607360189054906101000a900467ffffffffffffffff1667ffffffffffffffff168367ffffffffffffffff161115611f79576040517fc630a00d00000000000000000000000000000000000000000000000000000000815260040160405180910390fd5b60008184611f879190616f1b565b67ffffffffffffffff1687611f9c9190616f4f565b905060405180606001604052808481526020014267ffffffffffffffff168152602001607360089054906101000a900467ffffffffffffffff1667ffffffffffffffff16815250607260008767ffffffffffffffff1667ffffffffffffffff1681526020019081526020016000206000820151816000015560208201518160010160006101000a81548167ffffffffffffffff021916908367ffffffffffffffff16021790555060408201518160010160086101000a81548167ffffffffffffffff021916908367ffffffffffffffff16021790555090505085607360006101000a81548167ffffffffffffffff021916908367ffffffffffffffff16021790555084607360086101000a81548167ffffffffffffffff021916908367ffffffffffffffff1602179055508167ffffffffffffffff168467ffffffffffffffff161461210c5783607360106101000a81548167ffffffffffffffff021916908367ffffffffffffffff1602179055505b61216633308360705461211f9190616f83565b7f000000000000000000000000000000000000000000000000000000000000000073ffffffffffffffffffffffffffffffffffffffff1661528e909392919063ffffffff16565b61216e615317565b7f000000000000000000000000000000000000000000000000000000000000000073ffffffffffffffffffffffffffffffffffffffff166379e2cf976040518163ffffffff1660e01b8152600401600060405180830381600087803b1580156121d657600080fd5b505af11580156121ea573d6000803e3d6000fd5b505050508467ffffffffffffffff167f303446e6a8cb73c83dff421c0b1d5e5ce0719dab1bff13660fc254e58cc17fce60405160405180910390a250505050505050505050565b3373ffffffffffffffffffffffffffffffffffffffff16607a60009054906101000a900473ffffffffffffffffffffffffffffffffffffffff1673ffffffffffffffffffffffffffffffffffffffff16146122b8576040517f4755657900000000000000000000000000000000000000000000000000000000815260040160405180910390fd5b607b601c9054906101000a900460ff166122fe576040517ff6ba91a100000000000000000000000000000000000000000000000000000000815260040160405180910390fd5b6000607b601c6101000a81548160ff0219169083151502179055507f854dd6ce5a1445c4c54388b21cffd11cf5bba1b9e763aec48ce3da75d617412f60405160405180910390a1565b600060646070546123589190616f83565b905090565b606f60009054906101000a900460ff16156123a4576040517f2f0047fc00000000000000000000000000000000000000000000000000000000815260040160405180910390fd5b42607960189054906101000a900467ffffffffffffffff16607260008767ffffffffffffffff1667ffffffffffffffff16815260200190815260200160002060010160009054906101000a900467ffffffffffffffff166124059190616bd9565b67ffffffffffffffff161115612447576040517f8a0704d300000000000000000000000000000000000000000000000000000000815260040160405180910390fd5b6103e867ffffffffffffffff1685856124609190616f1b565b67ffffffffffffffff1611156124a2576040517fb59f753a00000000000000000000000000000000000000000000000000000000815260040160405180910390fd5b6124b0868686868686614761565b6124b9846153fd565b6000607960109054906101000a900467ffffffffffffffff1667ffffffffffffffff16036126445783607460006101000a81548167ffffffffffffffff021916908367ffffffffffffffff16021790555081607560008667ffffffffffffffff1667ffffffffffffffff168152602001908152602001600020819055506000607960009054906101000a900467ffffffffffffffff1667ffffffffffffffff1611156125b4576000607960006101000a81548167ffffffffffffffff021916908367ffffffffffffffff1602179055506000607960086101000a81548167ffffffffffffffff021916908367ffffffffffffffff1602179055505b7f000000000000000000000000000000000000000000000000000000000000000073ffffffffffffffffffffffffffffffffffffffff166333d6247d846040518263ffffffff1660e01b815260040161260d9190616242565b600060405180830381600087803b15801561262757600080fd5b505af115801561263b573d6000803e3d6000fd5b50505050612777565b61264c615317565b6079600081819054906101000a900467ffffffffffffffff168092919061267290616dc5565b91906101000a81548167ffffffffffffffff021916908367ffffffffffffffff1602179055505060405180608001604052804267ffffffffffffffff1681526020018567ffffffffffffffff1681526020018481526020018381525060786000607960009054906101000a900467ffffffffffffffff1667ffffffffffffffff16815260200190815260200160002060008201518160000160006101000a81548167ffffffffffffffff021916908367ffffffffffffffff16021790555060208201518160000160086101000a81548167ffffffffffffffff021916908367ffffffffffffffff16021790555060408201518160010155606082015181600201559050505b3373ffffffffffffffffffffffffffffffffffffffff168467ffffffffffffffff167f9c72852172521097ba7e1482e6b44b351323df0155f97f4ea18fcec28e1f5966846040516127c89190616242565b60405180910390a3505050505050565b60716020528060005260406000206000915090505481565b3373ffffffffffffffffffffffffffffffffffffffff16607a60009054906101000a900473ffffffffffffffffffffffffffffffffffffffff1673ffffffffffffffffffffffffffffffffffffffff1614612877576040517f4755657900000000000000000000000000000000000000000000000000000000815260040160405180910390fd5b80606f600b6101000a81548173ffffffffffffffffffffffffffffffffffffffff021916908373ffffffffffffffffffffffffffffffffffffffff1602179055507ff54144f9611984021529f814a1cb6a41e22c58351510a0d9f7e822618abb9cc0816040516128e79190616093565b60405180910390a150565b6128fa615640565b61290460006156be565b565b61290e612ce2565b73ffffffffffffffffffffffffffffffffffffffff163373ffffffffffffffffffffffffffffffffffffffff1614612ae257600061294a613458565b90508067ffffffffffffffff168267ffffffffffffffff1611612999576040517f812a372d00000000000000000000000000000000000000000000000000000000815260040160405180910390fd5b607360089054906101000a900467ffffffffffffffff1667ffffffffffffffff168267ffffffffffffffff161180612a1957506000607260008467ffffffffffffffff1667ffffffffffffffff16815260200190815260200160002060010160009054906101000a900467ffffffffffffffff1667ffffffffffffffff16145b15612a50576040517f98c5c01400000000000000000000000000000000000000000000000000000000815260040160405180910390fd5b4262093a80607260008567ffffffffffffffff1667ffffffffffffffff16815260200190815260200160002060010160009054906101000a900467ffffffffffffffff16612a9e9190616bd9565b67ffffffffffffffff161115612ae0576040517fd257555a00000000000000000000000000000000000000000000000000000000815260040160405180910390fd5b505b612aea615784565b50565b607460009054906101000a900467ffffffffffffffff1681565b7f000000000000000000000000000000000000000000000000000000000000000081565b60786020528060005260406000206000915090508060000160009054906101000a900467ffffffffffffffff16908060000160089054906101000a900467ffffffffffffffff16908060010154908060020154905084565b607960189054906101000a900467ffffffffffffffff1681565b3373ffffffffffffffffffffffffffffffffffffffff16607b60009054906101000a900473ffffffffffffffffffffffffffffffffffffffff1673ffffffffffffffffffffffffffffffffffffffff1614612c24576040517fd1ec4b2300000000000000000000000000000000000000000000000000000000815260040160405180910390fd5b607b60009054906101000a900473ffffffffffffffffffffffffffffffffffffffff16607a60006101000a81548173ffffffffffffffffffffffffffffffffffffffff021916908373ffffffffffffffffffffffffffffffffffffffff1602179055507f056dc487bbf0795d0bbb1b4f0af523a855503cff740bfb4d5475f7a90c091e8e607b60009054906101000a900473ffffffffffffffffffffffffffffffffffffffff16604051612cd89190616093565b60405180910390a1565b6000603360009054906101000a900473ffffffffffffffffffffffffffffffffffffffff16905090565b6000807f000000000000000000000000000000000000000000000000000000000000000073ffffffffffffffffffffffffffffffffffffffff166370a08231306040518263ffffffff1660e01b8152600401612d689190616093565b602060405180830381865afa158015612d85573d6000803e3d6000fd5b505050506040513d601f19601f82011682018060405250810190612da99190616e47565b90506000612db5613458565b607360089054906101000a900467ffffffffffffffff16607360109054906101000a900467ffffffffffffffff16607360189054906101000a900467ffffffffffffffff16612e049190616f1b565b612e0e9190616bd9565b612e189190616f1b565b67ffffffffffffffff16905060008103612e3757600092505050612e48565b8082612e43919061700c565b925050505b90565b606f60009054906101000a900460ff1615612e92576040517f2f0047fc00000000000000000000000000000000000000000000000000000000815260040160405180910390fd5b612ea187878787878787614b6a565b7f1f44c21118c4603cfb4e1b621dbcfa2b73efcececee2b99b620b2953d33a7010607560008667ffffffffffffffff1667ffffffffffffffff1681526020019081526020016000205483604051612ef992919061703d565b60405180910390a1612f09615784565b50505050505050565b3373ffffffffffffffffffffffffffffffffffffffff16607a60009054906101000a900473ffffffffffffffffffffffffffffffffffffffff1673ffffffffffffffffffffffffffffffffffffffff1614612f99576040517f4755657900000000000000000000000000000000000000000000000000000000815260040160405180910390fd5b62093a8067ffffffffffffffff168167ffffffffffffffff161115612fea576040517fcc96507000000000000000000000000000000000000000000000000000000000815260040160405180910390fd5b606f60009054906101000a900460ff1661306257607960109054906101000a900467ffffffffffffffff1667ffffffffffffffff168167ffffffffffffffff1610613061576040517f48a05a9000000000000000000000000000000000000000000000000000000000815260040160405180910390fd5b5b80607960106101000a81548167ffffffffffffffff021916908367ffffffffffffffff1602179055507fc4121f4e22c69632ebb7cf1f462be0511dc034f999b52013eddfb24aab765c75816040516130ba9190615d77565b60405180910390a150565b3373ffffffffffffffffffffffffffffffffffffffff16607a60009054906101000a900473ffffffffffffffffffffffffffffffffffffffff1673ffffffffffffffffffffffffffffffffffffffff161461314c576040517f4755657900000000000000000000000000000000000000000000000000000000815260040160405180910390fd5b620151808167ffffffffffffffff161115613193576040517fe067dfe800000000000000000000000000000000000000000000000000000000815260040160405180910390fd5b80606f60016101000a81548167ffffffffffffffff021916908367ffffffffffffffff1602179055507f1b023231a1ab6b5d93992f168fb44498e1a7e64cef58daff6f1c216de6a68c28816040516131eb9190615d77565b60405180910390a150565b7f000000000000000000000000000000000000000000000000000000000000000081565b3373ffffffffffffffffffffffffffffffffffffffff16607a60009054906101000a900473ffffffffffffffffffffffffffffffffffffffff1673ffffffffffffffffffffffffffffffffffffffff16146132a1576040517f4755657900000000000000000000000000000000000000000000000000000000815260040160405180910390fd5b80607b60006101000a81548173ffffffffffffffffffffffffffffffffffffffff021916908373ffffffffffffffffffffffffffffffffffffffff1602179055507fa5b56b7906fd0a20e3f35120dd8343db1e12e037a6c90111c7e42885e82a1ce6816040516133119190616093565b60405180910390a150565b7f000000000000000000000000000000000000000000000000000000000000000081565b606f60099054906101000a900461ffff1681565b60726020528060005260406000206000915090508060000154908060010160009054906101000a900467ffffffffffffffff16908060010160089054906101000a900467ffffffffffffffff16905083565b7f000000000000000000000000000000000000000000000000000000000000000081565b600067ffffffff0000000167ffffffffffffffff80168316108015613406575067ffffffff0000000167ffffffffffffffff8016604084901c16105b8015613429575067ffffffff0000000167ffffffffffffffff8016608084901c16105b8015613440575067ffffffff0000000160c083901c105b1561344e5760019050613453565b600090505b919050565b600080607960009054906101000a900467ffffffffffffffff1667ffffffffffffffff1611156134d45760786000607960009054906101000a900467ffffffffffffffff1667ffffffffffffffff16815260200190815260200160002060000160089054906101000a900467ffffffffffffffff1690506134ee565b607460009054906101000a900467ffffffffffffffff1690505b90565b607b60149054906101000a900467ffffffffffffffff1681565b3373ffffffffffffffffffffffffffffffffffffffff16607a60009054906101000a900473ffffffffffffffffffffffffffffffffffffffff1673ffffffffffffffffffffffffffffffffffffffff1614613592576040517f4755657900000000000000000000000000000000000000000000000000000000815260040160405180910390fd5b80607690805190602001906135a8929190615cb1565b507f6b8f723a4c7a5335cafae8a598a0aa0301be1387c037dccc085b62add6448b20816040516135d89190615e2b565b60405180910390a150565b606f600b9054906101000a900473ffffffffffffffffffffffffffffffffffffffff1681565b7f000000000000000000000000000000000000000000000000000000000000000081565b60008060019054906101000a900460ff1615905080801561365e5750600160008054906101000a900460ff1660ff16105b8061368b575061366d3061580e565b15801561368a5750600160008054906101000a900460ff1660ff16145b5b6136ca576040517f08c379a00000000000000000000000000000000000000000000000000000000081526004016136c1906170d8565b60405180910390fd5b60016000806101000a81548160ff021916908360ff1602179055508015613707576001600060016101000a81548160ff0219169083151502179055505b86600001602081019061371a919061637d565b607a60006101000a81548173ffffffffffffffffffffffffffffffffffffffff021916908373ffffffffffffffffffffffffffffffffffffffff16021790555086602001602081019061376d919061637d565b606f600b6101000a81548173ffffffffffffffffffffffffffffffffffffffff021916908373ffffffffffffffffffffffffffffffffffffffff1602179055508660600160208101906137c0919061637d565b607460086101000a81548173ffffffffffffffffffffffffffffffffffffffff021916908373ffffffffffffffffffffffffffffffffffffffff16021790555085607560008067ffffffffffffffff168152602001908152602001600020819055508460769080519060200190613838929190615cb1565b50836077908051906020019061384f929190615cb1565b5062093a8067ffffffffffffffff168760400160208101906138719190616206565b67ffffffffffffffff1611156138b3576040517fcc96507000000000000000000000000000000000000000000000000000000000815260040160405180910390fd5b8660400160208101906138c69190616206565b607960106101000a81548167ffffffffffffffff021916908367ffffffffffffffff16021790555062093a8067ffffffffffffffff1687608001602081019061390f9190616206565b67ffffffffffffffff161115613951576040517f1d06e87900000000000000000000000000000000000000000000000000000000815260040160405180910390fd5b8660800160208101906139649190616206565b607960186101000a81548167ffffffffffffffff021916908367ffffffffffffffff16021790555067016345785d8a0000607081905550610708606f60016101000a81548167ffffffffffffffff021916908367ffffffffffffffff1602179055506103ea606f60096101000a81548161ffff021916908361ffff16021790555062069780607b60146101000a81548167ffffffffffffffff021916908367ffffffffffffffff1602179055506001607b601c6101000a81548160ff021916908315150217905550613a34615831565b7fed7be53c9f1a96a481223b15568a5b1a475e01a74b347d6ca187c8bf0c078cd660007f00000000000000000000000000000000000000000000000000000000000000008585604051613a8a9493929190617160565b60405180910390a18015613aeb5760008060016101000a81548160ff0219169083151502179055507f7f26b83ff96e1f2b6a682f133852f6798a09c465da95921460cefb38474024986001604051613ae291906171e8565b60405180910390a15b50505050505050565b607b601c9054906101000a900460ff1615613b3b576040517f24eff8c300000000000000000000000000000000000000000000000000000000815260040160405180910390fd5b606f60009054906101000a900460ff1615613b82576040517f2f0047fc00000000000000000000000000000000000000000000000000000000815260040160405180910390fd5b600082829050905060008103613bc4576040517fcb591a5f00000000000000000000000000000000000000000000000000000000815260040160405180910390fd5b6103e867ffffffffffffffff16811115613c0a576040517fb59f753a00000000000000000000000000000000000000000000000000000000815260040160405180910390fd5b607360189054906101000a900467ffffffffffffffff1667ffffffffffffffff1681607360109054906101000a900467ffffffffffffffff1667ffffffffffffffff16613c579190617203565b1115613c8f576040517fc630a00d00000000000000000000000000000000000000000000000000000000815260040160405180910390fd5b6000607360089054906101000a900467ffffffffffffffff1690506000607360109054906101000a900467ffffffffffffffff1690506000607260008467ffffffffffffffff1667ffffffffffffffff16815260200190815260200160002060000154905060005b84811015613ed9576000878783818110613d1457613d13616c17565b5b9050602002810190613d269190617259565b613d2f90617301565b90508380613d3c90616dc5565b9450506000816000015180519060200120905060008183602001518460400151604051602001613d6e93929190616df5565b604051602081830303815290604052805190602001209050607160008767ffffffffffffffff1667ffffffffffffffff168152602001908152602001600020548114613de6576040517fce3d755e00000000000000000000000000000000000000000000000000000000815260040160405180910390fd5b607160008767ffffffffffffffff1667ffffffffffffffff16815260200190815260200160002060009055600188613e1e9190616f4f565b8403613e8e5742607b60149054906101000a900467ffffffffffffffff168460400151613e4b9190616bd9565b67ffffffffffffffff161115613e8d576040517fc44a082100000000000000000000000000000000000000000000000000000000815260040160405180910390fd5b5b848284602001514233604051602001613eab959493929190616e74565b6040516020818303038152906040528051906020012094505050508080613ed190616ed3565b915050613cf7565b508383613ee69190616bd9565b925042607360006101000a81548167ffffffffffffffff021916908367ffffffffffffffff16021790555060405180606001604052808281526020014267ffffffffffffffff168152602001607360089054906101000a900467ffffffffffffffff1667ffffffffffffffff16815250607260008567ffffffffffffffff1667ffffffffffffffff1681526020019081526020016000206000820151816000015560208201518160010160006101000a81548167ffffffffffffffff021916908367ffffffffffffffff16021790555060408201518160010160086101000a81548167ffffffffffffffff021916908367ffffffffffffffff16021790555090505082607360086101000a81548167ffffffffffffffff021916908367ffffffffffffffff16021790555081607360106101000a81548167ffffffffffffffff021916908367ffffffffffffffff1602179055508267ffffffffffffffff167f648a61dd2438f072f5a1960939abd30f37aea80d2e94c9792ad142d3e0a490a460405160405180910390a2505050505050565b607960109054906101000a900467ffffffffffffffff1681565b3373ffffffffffffffffffffffffffffffffffffffff16607a60009054906101000a900473ffffffffffffffffffffffffffffffffffffffff1673ffffffffffffffffffffffffffffffffffffffff161461411a576040517f4755657900000000000000000000000000000000000000000000000000000000815260040160405180910390fd5b7f000000000000000000000000000000000000000000000000000000000000000073ffffffffffffffffffffffffffffffffffffffff1663dbc169766040518163ffffffff1660e01b8152600401600060405180830381600087803b15801561418257600080fd5b505af1158015614196573d6000803e3d6000fd5b505050506141a2615892565b565b607360189054906101000a900467ffffffffffffffff1681565b7f000000000000000000000000000000000000000000000000000000000000000081565b607b601c9054906101000a900460ff1615614229576040517f24eff8c300000000000000000000000000000000000000000000000000000000815260040160405180910390fd5b606f60009054906101000a900460ff1615614270576040517f2f0047fc00000000000000000000000000000000000000000000000000000000815260040160405180910390fd5b600061427a612347565b9050818111156142b6576040517f4732fdb500000000000000000000000000000000000000000000000000000000815260040160405180910390fd5b6113888484905011156142f5576040517fa29a6c7c00000000000000000000000000000000000000000000000000000000815260040160405180910390fd5b6143423330837f000000000000000000000000000000000000000000000000000000000000000073ffffffffffffffffffffffffffffffffffffffff1661528e909392919063ffffffff16565b60007f000000000000000000000000000000000000000000000000000000000000000073ffffffffffffffffffffffffffffffffffffffff16633ed691ef6040518163ffffffff1660e01b8152600401602060405180830381865afa1580156143af573d6000803e3d6000fd5b505050506040513d601f19601f820116820180604052508101906143d39190617329565b90506073601881819054906101000a900467ffffffffffffffff16809291906143fb90616dc5565b91906101000a81548167ffffffffffffffff021916908367ffffffffffffffff160217905550508484604051614432929190617386565b6040518091039020814260405160200161444e93929190616df5565b6040516020818303038152906040528051906020012060716000607360189054906101000a900467ffffffffffffffff1667ffffffffffffffff1667ffffffffffffffff168152602001908152602001600020819055503273ffffffffffffffffffffffffffffffffffffffff163373ffffffffffffffffffffffffffffffffffffffff160361453757607360189054906101000a900467ffffffffffffffff1667ffffffffffffffff167ff94bb37db835f1ab585ee00041849a09b12cd081d77fa15ca070757619cbc931823360405161452a9291906173c5565b60405180910390a2614596565b607360189054906101000a900467ffffffffffffffff1667ffffffffffffffff167ff94bb37db835f1ab585ee00041849a09b12cd081d77fa15ca070757619cbc9318233888860405161458d949392919061742e565b60405180910390a25b5050505050565b607b601c9054906101000a900460ff1681565b3373ffffffffffffffffffffffffffffffffffffffff16607a60009054906101000a900473ffffffffffffffffffffffffffffffffffffffff1673ffffffffffffffffffffffffffffffffffffffff1614614637576040517f4755657900000000000000000000000000000000000000000000000000000000815260040160405180910390fd5b80607460086101000a81548173ffffffffffffffffffffffffffffffffffffffff021916908373ffffffffffffffffffffffffffffffffffffffff1602179055507f61f8fec29495a3078e9271456f05fb0707fd4e41f7661865f80fc437d06681ca816040516146a79190616093565b60405180910390a150565b6146ba615640565b600073ffffffffffffffffffffffffffffffffffffffff168173ffffffffffffffffffffffffffffffffffffffff1603614729576040517f08c379a0000000000000000000000000000000000000000000000000000000008152600401614720906174e0565b60405180910390fd5b614732816156be565b50565b607a60009054906101000a900473ffffffffffffffffffffffffffffffffffffffff1681565b60705481565b60008061476c613458565b905060008867ffffffffffffffff161461487757607960009054906101000a900467ffffffffffffffff1667ffffffffffffffff168867ffffffffffffffff1611156147e4576040517fbb14c20500000000000000000000000000000000000000000000000000000000815260040160405180910390fd5b6000607860008a67ffffffffffffffff1681526020019081526020016000209050806002015492508060000160089054906101000a900467ffffffffffffffff1667ffffffffffffffff168867ffffffffffffffff1614614871576040517f2bd2e3e700000000000000000000000000000000000000000000000000000000815260040160405180910390fd5b5061492c565b607560008867ffffffffffffffff1667ffffffffffffffff1681526020019081526020016000205491506000801b82036148dd576040517f4997b98600000000000000000000000000000000000000000000000000000000815260040160405180910390fd5b8067ffffffffffffffff168767ffffffffffffffff16111561492b576040517f1e56e9e200000000000000000000000000000000000000000000000000000000815260040160405180910390fd5b5b8067ffffffffffffffff168667ffffffffffffffff1611614979576040517fb9b18f5700000000000000000000000000000000000000000000000000000000815260040160405180910390fd5b60006149888888888689610d11565b905060007f30644e72e131a029b85045b68181585d2833e84879b9709143e1f593f00000016002836040516149bd9190617531565b602060405180830381855afa1580156149da573d6000803e3d6000fd5b5050506040513d601f19601f820116820180604052508101906149fd9190617329565b60001c614a0a9190617548565b90507f000000000000000000000000000000000000000000000000000000000000000073ffffffffffffffffffffffffffffffffffffffff16639121da8a866040518060200160405280858152506040518363ffffffff1660e01b8152600401614a75929190617635565b602060405180830381865afa158015614a92573d6000803e3d6000fd5b505050506040513d601f19601f82011682018060405250810190614ab6919061768c565b614aec576040517f09bde33900000000000000000000000000000000000000000000000000000000815260040160405180910390fd5b614b5e33848a614afc9190616f1b565b67ffffffffffffffff16614b0e612d0c565b614b189190616f83565b7f000000000000000000000000000000000000000000000000000000000000000073ffffffffffffffffffffffffffffffffffffffff166159219092919063ffffffff16565b50505050505050505050565b6000808867ffffffffffffffff1614614c7457607960009054906101000a900467ffffffffffffffff1667ffffffffffffffff168867ffffffffffffffff161115614be1576040517fbb14c20500000000000000000000000000000000000000000000000000000000815260040160405180910390fd5b6000607860008a67ffffffffffffffff1681526020019081526020016000209050806002015491508060000160089054906101000a900467ffffffffffffffff1667ffffffffffffffff168767ffffffffffffffff1614614c6e576040517f2bd2e3e700000000000000000000000000000000000000000000000000000000815260040160405180910390fd5b50614d3f565b607560008767ffffffffffffffff1667ffffffffffffffff1681526020019081526020016000205490506000801b8103614cda576040517f4997b98600000000000000000000000000000000000000000000000000000000815260040160405180910390fd5b607460009054906101000a900467ffffffffffffffff1667ffffffffffffffff168667ffffffffffffffff161115614d3e576040517f1e56e9e200000000000000000000000000000000000000000000000000000000815260040160405180910390fd5b5b607960009054906101000a900467ffffffffffffffff1667ffffffffffffffff168767ffffffffffffffff161180614d8b57508767ffffffffffffffff168767ffffffffffffffff1611155b80614dc05750607960089054906101000a900467ffffffffffffffff1667ffffffffffffffff168767ffffffffffffffff1611155b15614df7576040517fbfa7079f00000000000000000000000000000000000000000000000000000000815260040160405180910390fd5b607860008867ffffffffffffffff16815260200190815260200160002060000160089054906101000a900467ffffffffffffffff1667ffffffffffffffff168567ffffffffffffffff1614614e78576040517f32a2a77f00000000000000000000000000000000000000000000000000000000815260040160405180910390fd5b6000614e878787878588610d11565b905060007f30644e72e131a029b85045b68181585d2833e84879b9709143e1f593f0000001600283604051614ebc9190617531565b602060405180830381855afa158015614ed9573d6000803e3d6000fd5b5050506040513d601f19601f82011682018060405250810190614efc9190617329565b60001c614f099190617548565b90507f000000000000000000000000000000000000000000000000000000000000000073ffffffffffffffffffffffffffffffffffffffff16639121da8a856040518060200160405280858152506040518363ffffffff1660e01b8152600401614f74929190617635565b602060405180830381865afa158015614f91573d6000803e3d6000fd5b505050506040513d601f19601f82011682018060405250810190614fb5919061768c565b614feb576040517f09bde33900000000000000000000000000000000000000000000000000000000815260040160405180910390fd5b84607860008b67ffffffffffffffff1681526020019081526020016000206002015403615044576040517fa47276bd00000000000000000000000000000000000000000000000000000000815260040160405180910390fd5b50505050505050505050565b607960089054906101000a900467ffffffffffffffff1667ffffffffffffffff168167ffffffffffffffff161115806150b25750607960009054906101000a900467ffffffffffffffff1667ffffffffffffffff168167ffffffffffffffff16115b156150e9576040517fd086b70b00000000000000000000000000000000000000000000000000000000815260040160405180910390fd5b6000607860008367ffffffffffffffff168152602001908152602001600020905060008160000160089054906101000a900467ffffffffffffffff16905080607460006101000a81548167ffffffffffffffff021916908367ffffffffffffffff1602179055508160020154607560008367ffffffffffffffff1667ffffffffffffffff1681526020019081526020016000208190555082607960086101000a81548167ffffffffffffffff021916908367ffffffffffffffff1602179055507f000000000000000000000000000000000000000000000000000000000000000073ffffffffffffffffffffffffffffffffffffffff166333d6247d83600101546040518263ffffffff1660e01b81526004016152069190616242565b600060405180830381600087803b15801561522057600080fd5b505af1158015615234573d6000803e3d6000fd5b505050508267ffffffffffffffff168167ffffffffffffffff167f328d3c6c0fd6f1be0515e422f2d87e59f25922cbc2233568515a0c4bc3f8510e84600201546040516152819190616242565b60405180910390a3505050565b615311846323b872dd60e01b8585856040516024016152af939291906176b9565b604051602081830303815290604052907bffffffffffffffffffffffffffffffffffffffffffffffffffffffff19166020820180517bffffffffffffffffffffffffffffffffffffffffffffffffffffffff83818316178352505050506159a7565b50505050565b607960089054906101000a900467ffffffffffffffff1667ffffffffffffffff16607960009054906101000a900467ffffffffffffffff1667ffffffffffffffff1611156153fb5760006001607960089054906101000a900467ffffffffffffffff166153849190616bd9565b905061538f816113e4565b156153f9576000600282607960009054906101000a900467ffffffffffffffff166153ba9190616f1b565b6153c491906176f0565b826153cf9190616bd9565b90506153da816113e4565b156153ed576153e881615050565b6153f7565b6153f682615050565b5b505b505b565b6000615407613458565b90506000829050600080838561541d9190616f1b565b67ffffffffffffffff1690506000606f60019054906101000a900467ffffffffffffffff1667ffffffffffffffff16426154579190616f4f565b90505b8467ffffffffffffffff168467ffffffffffffffff161461550e576000607260008667ffffffffffffffff1667ffffffffffffffff16815260200190815260200160002090508060010160009054906101000a900467ffffffffffffffff1667ffffffffffffffff168210156154ea578060010160089054906101000a900467ffffffffffffffff169450615508565b85856154f69190616f1b565b67ffffffffffffffff1693505061550e565b5061545a565b6000838361551c9190616f4f565b90508381101561557b5760008185039050600c811161553b578061553e565b600c5b9050806103e80a81606f60099054906101000a900461ffff1661ffff160a607054028161556e5761556d616fdd565b5b04607081905550506155f4565b60008482039050600c81116155905780615593565b600c5b90506000816103e80a82606f60099054906101000a900461ffff1661ffff160a670de0b6b3a764000002816155cb576155ca616fdd565b5b04905080607054670de0b6b3a764000002816155ea576155e9616fdd565b5b0460708190555050505b683635c9adc5dea00000607054111561561c57683635c9adc5dea00000607081905550615637565b633b9aca00607054101561563657633b9aca006070819055505b5b50505050505050565b615648615a6f565b73ffffffffffffffffffffffffffffffffffffffff16615666612ce2565b73ffffffffffffffffffffffffffffffffffffffff16146156bc576040517f08c379a00000000000000000000000000000000000000000000000000000000081526004016156b39061776d565b60405180910390fd5b565b6000603360009054906101000a900473ffffffffffffffffffffffffffffffffffffffff16905081603360006101000a81548173ffffffffffffffffffffffffffffffffffffffff021916908373ffffffffffffffffffffffffffffffffffffffff1602179055508173ffffffffffffffffffffffffffffffffffffffff168173ffffffffffffffffffffffffffffffffffffffff167f8be0079c531659141344cd1fd0a4f28419497f9722a3daafe3b4186f6b6457e060405160405180910390a35050565b7f000000000000000000000000000000000000000000000000000000000000000073ffffffffffffffffffffffffffffffffffffffff16632072f6c56040518163ffffffff1660e01b8152600401600060405180830381600087803b1580156157ec57600080fd5b505af1158015615800573d6000803e3d6000fd5b5050505061580c615a77565b565b6000808273ffffffffffffffffffffffffffffffffffffffff163b119050919050565b600060019054906101000a900460ff16615880576040517f08c379a0000000000000000000000000000000000000000000000000000000008152600401615877906177ff565b60405180910390fd5b61589061588b615a6f565b6156be565b565b606f60009054906101000a900460ff166158d8576040517f5386698100000000000000000000000000000000000000000000000000000000815260040160405180910390fd5b6000606f60006101000a81548160ff0219169083151502179055507f1e5e34eea33501aecf2ebec9fe0e884a40804275ea7fe10b2ba084c8374308b360405160405180910390a1565b6159a28363a9059cbb60e01b848460405160240161594092919061781f565b604051602081830303815290604052907bffffffffffffffffffffffffffffffffffffffffffffffffffffffff19166020820180517bffffffffffffffffffffffffffffffffffffffffffffffffffffffff83818316178352505050506159a7565b505050565b6000615a09826040518060400160405280602081526020017f5361666545524332303a206c6f772d6c6576656c2063616c6c206661696c65648152508573ffffffffffffffffffffffffffffffffffffffff16615b079092919063ffffffff16565b9050600081511480615a2b575080806020019051810190615a2a919061768c565b5b615a6a576040517f08c379a0000000000000000000000000000000000000000000000000000000008152600401615a61906178ba565b60405180910390fd5b505050565b600033905090565b606f60009054906101000a900460ff1615615abe576040517f2f0047fc00000000000000000000000000000000000000000000000000000000815260040160405180910390fd5b6001606f60006101000a81548160ff0219169083151502179055507f2261efe5aef6fedc1fd1550b25facc9181745623049c7901287030b9ad1a549760405160405180910390a1565b6060615b168484600085615b1f565b90509392505050565b606082471015615b64576040517f08c379a0000000000000000000000000000000000000000000000000000000008152600401615b5b9061794c565b60405180910390fd5b6000808673ffffffffffffffffffffffffffffffffffffffff168587604051615b8d9190617531565b60006040518083038185875af1925050503d8060008114615bca576040519150601f19603f3d011682016040523d82523d6000602084013e615bcf565b606091505b5091509150615be087838387615bec565b92505050949350505050565b60608315615c4e576000835103615c4657615c068561580e565b615c45576040517f08c379a0000000000000000000000000000000000000000000000000000000008152600401615c3c906179b8565b60405180910390fd5b5b829050615c59565b615c588383615c61565b5b949350505050565b600082511115615c745781518083602001fd5b806040517f08c379a0000000000000000000000000000000000000000000000000000000008152600401615ca89190615e2b565b60405180910390fd5b828054615cbd90616a26565b90600052602060002090601f016020900481019282615cdf5760008555615d26565b82601f10615cf857805160ff1916838001178555615d26565b82800160010185558215615d26579182015b82811115615d25578251825591602001919060010190615d0a565b5b509050615d339190615d37565b5090565b5b80821115615d50576000816000905550600101615d38565b5090565b600067ffffffffffffffff82169050919050565b615d7181615d54565b82525050565b6000602082019050615d8c6000830184615d68565b92915050565b600081519050919050565b600082825260208201905092915050565b60005b83811015615dcc578082015181840152602081019050615db1565b83811115615ddb576000848401525b50505050565b6000601f19601f8301169050919050565b6000615dfd82615d92565b615e078185615d9d565b9350615e17818560208601615dae565b615e2081615de1565b840191505092915050565b60006020820190508181036000830152615e458184615df2565b905092915050565b60008115159050919050565b615e6281615e4d565b82525050565b6000602082019050615e7d6000830184615e59565b92915050565b6000604051905090565b600080fd5b600080fd5b600061ffff82169050919050565b615eae81615e97565b8114615eb957600080fd5b50565b600081359050615ecb81615ea5565b92915050565b600060208284031215615ee757615ee6615e8d565b5b6000615ef584828501615ebc565b91505092915050565b615f0781615d54565b8114615f1257600080fd5b50565b600081359050615f2481615efe565b92915050565b6000819050919050565b615f3d81615f2a565b8114615f4857600080fd5b50565b600081359050615f5a81615f34565b92915050565b600080600080600060a08688031215615f7c57615f7b615e8d565b5b6000615f8a88828901615f15565b9550506020615f9b88828901615f15565b9450506040615fac88828901615f4b565b9350506060615fbd88828901615f4b565b9250506080615fce88828901615f4b565b9150509295509295909350565b600081519050919050565b600082825260208201905092915050565b600061600282615fdb565b61600c8185615fe6565b935061601c818560208601615dae565b61602581615de1565b840191505092915050565b6000602082019050818103600083015261604a8184615ff7565b905092915050565b600073ffffffffffffffffffffffffffffffffffffffff82169050919050565b600061607d82616052565b9050919050565b61608d81616072565b82525050565b60006020820190506160a86000830184616084565b92915050565b600080fd5b6000819050826020601802820111156160cf576160ce6160ae565b5b92915050565b6000806000806000806103a087890312156160f3576160f2615e8d565b5b600061610189828a01615f15565b965050602061611289828a01615f15565b955050604061612389828a01615f15565b945050606061613489828a01615f4b565b935050608061614589828a01615f4b565b92505060a061615689828a016160b3565b9150509295509295509295565b60008060008060008060006103c0888a03121561618357616182615e8d565b5b60006161918a828b01615f15565b97505060206161a28a828b01615f15565b96505060406161b38a828b01615f15565b95505060606161c48a828b01615f15565b94505060806161d58a828b01615f4b565b93505060a06161e68a828b01615f4b565b92505060c06161f78a828b016160b3565b91505092959891949750929550565b60006020828403121561621c5761621b615e8d565b5b600061622a84828501615f15565b91505092915050565b61623c81615f2a565b82525050565b60006020820190506162576000830184616233565b92915050565b600080fd5b600080fd5b60008083601f84011261627d5761627c61625d565b5b8235905067ffffffffffffffff81111561629a57616299616262565b5b6020830191508360208202830111156162b6576162b56160ae565b5b9250929050565b6162c681616072565b81146162d157600080fd5b50565b6000813590506162e3816162bd565b92915050565b60008060006040848603121561630257616301615e8d565b5b600084013567ffffffffffffffff8111156163205761631f615e92565b5b61632c86828701616267565b9350935050602061633f868287016162d4565b9150509250925092565b6000819050919050565b61635c81616349565b82525050565b60006020820190506163776000830184616353565b92915050565b60006020828403121561639357616392615e8d565b5b60006163a1848285016162d4565b91505092915050565b6163b381616349565b81146163be57600080fd5b50565b6000813590506163d0816163aa565b92915050565b6000602082840312156163ec576163eb615e8d565b5b60006163fa848285016163c1565b91505092915050565b60006080820190506164186000830187615d68565b6164256020830186615d68565b6164326040830185616233565b61643f6060830184616233565b95945050505050565b6000819050919050565b600061646d61646861646384616052565b616448565b616052565b9050919050565b600061647f82616452565b9050919050565b600061649182616474565b9050919050565b6164a181616486565b82525050565b60006020820190506164bc6000830184616498565b92915050565b6164cb81615e97565b82525050565b60006020820190506164e660008301846164c2565b92915050565b60006060820190506165016000830186616233565b61650e6020830185615d68565b61651b6040830184615d68565b949350505050565b600061652e82616474565b9050919050565b61653e81616523565b82525050565b60006020820190506165596000830184616535565b92915050565b600080fd5b7f4e487b7100000000000000000000000000000000000000000000000000000000600052604160045260246000fd5b61659c82615de1565b810181811067ffffffffffffffff821117156165bb576165ba616564565b5b80604052505050565b60006165ce615e83565b90506165da8282616593565b919050565b600067ffffffffffffffff8211156165fa576165f9616564565b5b61660382615de1565b9050602081019050919050565b82818337600083830152505050565b600061663261662d846165df565b6165c4565b90508281526020810184848401111561664e5761664d61655f565b5b616659848285616610565b509392505050565b600082601f8301126166765761667561625d565b5b813561668684826020860161661f565b91505092915050565b6000602082840312156166a5576166a4615e8d565b5b600082013567ffffffffffffffff8111156166c3576166c2615e92565b5b6166cf84828501616661565b91505092915050565b60006166e382616474565b9050919050565b6166f3816166d8565b82525050565b600060208201905061670e60008301846166ea565b92915050565b600080fd5b600060a0828403121561672f5761672e616714565b5b81905092915050565b60008083601f84011261674e5761674d61625d565b5b8235905067ffffffffffffffff81111561676b5761676a616262565b5b602083019150836001820283011115616787576167866160ae565b5b9250929050565b60008060008060008061012087890312156167ac576167ab615e8d565b5b60006167ba89828a01616719565b96505060a06167cb89828a01615f4b565b95505060c087013567ffffffffffffffff8111156167ec576167eb615e92565b5b6167f889828a01616661565b94505060e087013567ffffffffffffffff81111561681957616818615e92565b5b61682589828a01616661565b93505061010087013567ffffffffffffffff81111561684757616846615e92565b5b61685389828a01616738565b92509250509295509295509295565b60008083601f8401126168785761687761625d565b5b8235905067ffffffffffffffff81111561689557616894616262565b5b6020830191508360208202830111156168b1576168b06160ae565b5b9250929050565b600080602083850312156168cf576168ce615e8d565b5b600083013567ffffffffffffffff8111156168ed576168ec615e92565b5b6168f985828601616862565b92509250509250929050565b600061691082616474565b9050919050565b61692081616905565b82525050565b600060208201905061693b6000830184616917565b92915050565b60008083601f8401126169575761695661625d565b5b8235905067ffffffffffffffff81111561697457616973616262565b5b6020830191508360018202830111156169905761698f6160ae565b5b9250929050565b6000806000604084860312156169b0576169af615e8d565b5b600084013567ffffffffffffffff8111156169ce576169cd615e92565b5b6169da86828701616941565b935093505060206169ed868287016163c1565b9150509250925092565b7f4e487b7100000000000000000000000000000000000000000000000000000000600052602260045260246000fd5b60006002820490506001821680616a3e57607f821691505b602082108103616a5157616a506169f7565b5b50919050565b60008160601b9050919050565b6000616a6f82616a57565b9050919050565b6000616a8182616a64565b9050919050565b616a99616a9482616072565b616a76565b82525050565b6000819050919050565b616aba616ab582615f2a565b616a9f565b82525050565b60008160c01b9050919050565b6000616ad882616ac0565b9050919050565b616af0616aeb82615d54565b616acd565b82525050565b6000616b02828d616a88565b601482019150616b12828c616aa9565b602082019150616b22828b616aa9565b602082019150616b32828a616adf565b600882019150616b428289616adf565b600882019150616b528288616adf565b600882019150616b628287616aa9565b602082019150616b728286616aa9565b602082019150616b828285616aa9565b602082019150616b928284616adf565b6008820191508190509b9a5050505050505050505050565b7f4e487b7100000000000000000000000000000000000000000000000000000000600052601160045260246000fd5b6000616be482615d54565b9150616bef83615d54565b92508267ffffffffffffffff03821115616c0c57616c0b616baa565b5b828201905092915050565b7f4e487b7100000000000000000000000000000000000000000000000000000000600052603260045260246000fd5b600080fd5b600082356001608003833603038112616c6757616c66616c46565b5b80830191505092915050565b600080fd5b600080fd5b600067ffffffffffffffff821115616c9857616c97616564565b5b616ca182615de1565b9050602081019050919050565b6000616cc1616cbc84616c7d565b6165c4565b905082815260208101848484011115616cdd57616cdc61655f565b5b616ce8848285616610565b509392505050565b600082601f830112616d0557616d0461625d565b5b8135616d15848260208601616cae565b91505092915050565b600060808284031215616d3457616d33616c73565b5b616d3e60806165c4565b9050600082013567ffffffffffffffff811115616d5e57616d5d616c78565b5b616d6a84828501616cf0565b6000830152506020616d7e84828501615f4b565b6020830152506040616d9284828501615f15565b6040830152506060616da684828501615f15565b60608301525092915050565b6000616dbe3683616d1e565b9050919050565b6000616dd082615d54565b915067ffffffffffffffff8203616dea57616de9616baa565b5b600182019050919050565b6000616e018286616aa9565b602082019150616e118285616aa9565b602082019150616e218284616adf565b600882019150819050949350505050565b600081519050616e41816163aa565b92915050565b600060208284031215616e5d57616e5c615e8d565b5b6000616e6b84828501616e32565b91505092915050565b6000616e808288616aa9565b602082019150616e908287616aa9565b602082019150616ea08286616aa9565b602082019150616eb08285616adf565b600882019150616ec08284616a88565b6014820191508190509695505050505050565b6000616ede82616349565b91507fffffffffffffffffffffffffffffffffffffffffffffffffffffffffffffffff8203616f1057616f0f616baa565b5b600182019050919050565b6000616f2682615d54565b9150616f3183615d54565b925082821015616f4457616f43616baa565b5b828203905092915050565b6000616f5a82616349565b9150616f6583616349565b925082821015616f7857616f77616baa565b5b828203905092915050565b6000616f8e82616349565b9150616f9983616349565b9250817fffffffffffffffffffffffffffffffffffffffffffffffffffffffffffffffff0483118215151615616fd257616fd1616baa565b5b828202905092915050565b7f4e487b7100000000000000000000000000000000000000000000000000000000600052601260045260246000fd5b600061701782616349565b915061702283616349565b92508261703257617031616fdd565b5b828204905092915050565b60006040820190506170526000830185616233565b61705f6020830184616233565b9392505050565b7f496e697469616c697a61626c653a20636f6e747261637420697320616c72656160008201527f647920696e697469616c697a6564000000000000000000000000000000000000602082015250565b60006170c2602e83615d9d565b91506170cd82617066565b604082019050919050565b600060208201905081810360008301526170f1816170b5565b9050919050565b6000819050919050565b600061711d617118617113846170f8565b616448565b615d54565b9050919050565b61712d81617102565b82525050565b600061713f8385615d9d565b935061714c838584616610565b61715583615de1565b840190509392505050565b60006060820190506171756000830187617124565b6171826020830186615d68565b8181036040830152617195818486617133565b905095945050505050565b6000819050919050565b600060ff82169050919050565b60006171d26171cd6171c8846171a0565b616448565b6171aa565b9050919050565b6171e2816171b7565b82525050565b60006020820190506171fd60008301846171d9565b92915050565b600061720e82616349565b915061721983616349565b9250827fffffffffffffffffffffffffffffffffffffffffffffffffffffffffffffffff0382111561724e5761724d616baa565b5b828201905092915050565b60008235600160600383360303811261727557617274616c46565b5b80830191505092915050565b60006060828403121561729757617296616c73565b5b6172a160606165c4565b9050600082013567ffffffffffffffff8111156172c1576172c0616c78565b5b6172cd84828501616cf0565b60008301525060206172e184828501615f4b565b60208301525060406172f584828501615f15565b60408301525092915050565b600061730d3683617281565b9050919050565b60008151905061732381615f34565b92915050565b60006020828403121561733f5761733e615e8d565b5b600061734d84828501617314565b91505092915050565b600081905092915050565b600061736d8385617356565b935061737a838584616610565b82840190509392505050565b6000617393828486617361565b91508190509392505050565b50565b60006173af600083615fe6565b91506173ba8261739f565b600082019050919050565b60006060820190506173da6000830185616233565b6173e76020830184616084565b81810360408301526173f8816173a2565b90509392505050565b600061740d8385615fe6565b935061741a838584616610565b61742383615de1565b840190509392505050565b60006060820190506174436000830187616233565b6174506020830186616084565b8181036040830152617463818486617401565b905095945050505050565b7f4f776e61626c653a206e6577206f776e657220697320746865207a65726f206160008201527f6464726573730000000000000000000000000000000000000000000000000000602082015250565b60006174ca602683615d9d565b91506174d58261746e565b604082019050919050565b600060208201905081810360008301526174f9816174bd565b9050919050565b600061750b82615fdb565b6175158185617356565b9350617525818560208601615dae565b80840191505092915050565b600061753d8284617500565b915081905092915050565b600061755382616349565b915061755e83616349565b92508261756e5761756d616fdd565b5b828206905092915050565b6175866103008383616610565b5050565b600060019050919050565b600081905092915050565b6000819050919050565b6175b381616349565b82525050565b60006175c583836175aa565b60208301905092915050565b6000602082019050919050565b6175e78161758a565b6175f18184617595565b92506175fc826175a0565b8060005b8381101561762d57815161761487826175b9565b965061761f836175d1565b925050600181019050617600565b505050505050565b60006103208201905061764b6000830185617579565b6176596103008301846175de565b9392505050565b61766981615e4d565b811461767457600080fd5b50565b60008151905061768681617660565b92915050565b6000602082840312156176a2576176a1615e8d565b5b60006176b084828501617677565b91505092915050565b60006060820190506176ce6000830186616084565b6176db6020830185616084565b6176e86040830184616353565b949350505050565b60006176fb82615d54565b915061770683615d54565b92508261771657617715616fdd565b5b828204905092915050565b7f4f776e61626c653a2063616c6c6572206973206e6f7420746865206f776e6572600082015250565b6000617757602083615d9d565b915061776282617721565b602082019050919050565b600060208201905081810360008301526177868161774a565b9050919050565b7f496e697469616c697a61626c653a20636f6e7472616374206973206e6f74206960008201527f6e697469616c697a696e67000000000000000000000000000000000000000000602082015250565b60006177e9602b83615d9d565b91506177f48261778d565b604082019050919050565b60006020820190508181036000830152617818816177dc565b9050919050565b60006040820190506178346000830185616084565b6178416020830184616353565b9392505050565b7f5361666545524332303a204552433230206f7065726174696f6e20646964206e60008201527f6f74207375636365656400000000000000000000000000000000000000000000602082015250565b60006178a4602a83615d9d565b91506178af82617848565b604082019050919050565b600060208201905081810360008301526178d381617897565b9050919050565b7f416464726573733a20696e73756666696369656e742062616c616e636520666f60008201527f722063616c6c0000000000000000000000000000000000000000000000000000602082015250565b6000617936602683615d9d565b9150617941826178da565b604082019050919050565b6000602082019050818103600083015261796581617929565b9050919050565b7f416464726573733a2063616c6c20746f206e6f6e2d636f6e7472616374000000600082015250565b60006179a2601d83615d9d565b91506179ad8261796c565b602082019050919050565b600060208201905081810360008301526179d181617995565b905091905056fea264697066735822122018a830f477ece089bd5b4c33cf964ea179f4190be1e65c97348b5749315ebee164736f6c634300080d0033",
    "linkReferences": {},
    "deployedLinkReferences": {}
}